{
  "contractName": "TicketAuction",
  "abi": [
    {
      "constant": true,
      "inputs": [
        {
          "name": "",
          "type": "address"
        }
      ],
      "name": "pendingReturns",
      "outputs": [
        {
          "name": "",
          "type": "uint256"
        }
      ],
      "payable": false,
      "stateMutability": "view",
      "type": "function",
      "signature": "0x26b387bb"
    },
    {
      "constant": true,
      "inputs": [],
      "name": "auctionCount",
      "outputs": [
        {
          "name": "",
          "type": "uint256"
        }
      ],
      "payable": false,
      "stateMutability": "view",
      "type": "function",
      "signature": "0x2ad71573"
    },
    {
      "constant": false,
      "inputs": [],
      "name": "withdraw",
      "outputs": [
        {
          "name": "",
          "type": "bool"
        }
      ],
      "payable": false,
      "stateMutability": "nonpayable",
      "type": "function",
      "signature": "0x3ccfd60b"
    },
    {
      "constant": true,
      "inputs": [
        {
          "name": "",
          "type": "uint256"
        }
      ],
      "name": "auctions",
      "outputs": [
        {
          "name": "id",
          "type": "uint256"
        },
        {
          "name": "startPrice",
          "type": "uint256"
        },
        {
          "name": "highestBid",
          "type": "uint256"
        },
        {
          "name": "highestBidder",
          "type": "address"
        },
        {
          "name": "ticketId",
          "type": "uint256"
        },
        {
          "name": "active",
          "type": "bool"
        }
      ],
      "payable": false,
      "stateMutability": "view",
      "type": "function",
      "signature": "0x571a26a0"
    },
    {
      "constant": true,
      "inputs": [],
      "name": "ticketContract",
      "outputs": [
        {
          "name": "",
          "type": "address"
        }
      ],
      "payable": false,
      "stateMutability": "view",
      "type": "function",
      "signature": "0x58a86e1d"
    },
    {
      "constant": true,
      "inputs": [
        {
          "name": "",
          "type": "uint256"
        },
        {
          "name": "",
          "type": "uint256"
        }
      ],
      "name": "auctionBids",
      "outputs": [
        {
          "name": "value",
          "type": "uint256"
        },
        {
          "name": "bidder",
          "type": "address"
        }
      ],
      "payable": false,
      "stateMutability": "view",
      "type": "function",
      "signature": "0x5f93de49"
    },
    {
      "inputs": [
        {
          "name": "_ticketContractAddress",
          "type": "address"
        }
      ],
      "payable": false,
      "stateMutability": "nonpayable",
      "type": "constructor",
      "signature": "constructor"
    },
    {
      "anonymous": false,
      "inputs": [
        {
          "indexed": false,
          "name": "auctionId",
          "type": "uint256"
        },
        {
          "indexed": false,
          "name": "ticketId",
          "type": "uint256"
        },
        {
          "indexed": false,
          "name": "startPrice",
          "type": "uint256"
        }
      ],
      "name": "AuctionStarted",
      "type": "event",
      "signature": "0x44c53be110c6aa83aa83cd02e351ed172359268272ee1b5d31c0fe48db35c6c7"
    },
    {
      "anonymous": false,
      "inputs": [
        {
          "indexed": false,
          "name": "ticketId",
          "type": "uint256"
        },
        {
          "indexed": false,
          "name": "winner",
          "type": "address"
        },
        {
          "indexed": false,
          "name": "amount",
          "type": "uint256"
        }
      ],
      "name": "AuctionEnd",
      "type": "event",
      "signature": "0x63205d4b0571673d9c1d2319c4a2ed023943c9757f110eefffb8e2c1decdd160"
    },
    {
      "anonymous": false,
      "inputs": [
        {
          "indexed": false,
          "name": "auctionId",
          "type": "uint256"
        },
        {
          "indexed": false,
          "name": "bidder",
          "type": "address"
        },
        {
          "indexed": false,
          "name": "value",
          "type": "uint256"
        }
      ],
      "name": "BidPlaced",
      "type": "event",
      "signature": "0x0e54eff26401bf69b81b26f60bd85ef47f5d85275c1d268d84f68d6897431c47"
    },
    {
      "constant": false,
      "inputs": [
        {
          "name": "_ticketId",
          "type": "uint256"
        },
        {
          "name": "_startPrice",
          "type": "uint256"
        }
      ],
      "name": "startAuction",
      "outputs": [],
      "payable": false,
      "stateMutability": "nonpayable",
      "type": "function",
      "signature": "0x4fee13fc"
    },
    {
      "constant": false,
      "inputs": [
        {
          "name": "_ticketId",
          "type": "uint256"
        }
      ],
      "name": "bid",
      "outputs": [],
      "payable": true,
      "stateMutability": "payable",
      "type": "function",
      "signature": "0x454a2ab3"
    },
    {
      "constant": false,
      "inputs": [
        {
          "name": "_ticketId",
          "type": "uint256"
        }
      ],
      "name": "endAuction",
      "outputs": [],
      "payable": false,
      "stateMutability": "nonpayable",
      "type": "function",
      "signature": "0xb9a2de3a"
    },
    {
      "constant": true,
      "inputs": [
        {
          "name": "_ticketId",
          "type": "uint256"
        }
      ],
      "name": "getAuctionByTicketId",
      "outputs": [
        {
          "name": "",
          "type": "bool"
        }
      ],
      "payable": false,
      "stateMutability": "view",
      "type": "function",
      "signature": "0x1cea825e"
    },
    {
      "constant": false,
      "inputs": [
        {
          "name": "_auctionId",
          "type": "uint256"
        }
      ],
      "name": "placeBid",
      "outputs": [],
      "payable": true,
      "stateMutability": "payable",
      "type": "function",
      "signature": "0x9979ef45"
    },
    {
      "constant": true,
      "inputs": [
        {
          "name": "_auctionId",
          "type": "uint256"
        }
      ],
      "name": "getBidsByAuctionId",
      "outputs": [
        {
          "name": "",
          "type": "uint256[]"
        },
        {
          "name": "",
          "type": "address[]"
        }
      ],
      "payable": false,
      "stateMutability": "view",
      "type": "function",
      "signature": "0x56144606"
    }
  ],
  "bytecode": "0x6080604052600060025534801561001557600080fd5b50604051602080610e6c8339810180604052602081101561003557600080fd5b505160018054600160a060020a031916600160a060020a03909216919091179055610e07806100656000396000f3fe6080604052600436106100b95763ffffffff7c01000000000000000000000000000000000000000000000000000000006000350416631cea825e81146100be57806326b387bb146100fc5780632ad71573146101415780633ccfd60b14610156578063454a2ab31461016b5780634fee13fc1461018a57806356144606146101ba578063571a26a01461027d57806358a86e1d146102e45780635f93de49146103155780639979ef4514610366578063b9a2de3a14610383575b600080fd5b3480156100ca57600080fd5b506100e8600480360360208110156100e157600080fd5b50356103ad565b604080519115158252519081900360200190f35b34801561010857600080fd5b5061012f6004803603602081101561011f57600080fd5b5035600160a060020a031661040f565b60408051918252519081900360200190f35b34801561014d57600080fd5b5061012f610421565b34801561016257600080fd5b506100e8610427565b6101886004803603602081101561018157600080fd5b5035610492565b005b34801561019657600080fd5b50610188600480360360408110156101ad57600080fd5b5080359060200135610645565b3480156101c657600080fd5b506101e4600480360360208110156101dd57600080fd5b5035610735565b604051808060200180602001838103835285818151815260200191508051906020019060200280838360005b83811015610228578181015183820152602001610210565b50505050905001838103825284818151815260200191508051906020019060200280838360005b8381101561026757818101518382015260200161024f565b5050505090500194505050505060405180910390f35b34801561028957600080fd5b506102a7600480360360208110156102a057600080fd5b5035610895565b60408051968752602087019590955285850193909352600160a060020a0390911660608501526080840152151560a0830152519081900360c00190f35b3480156102f057600080fd5b506102f96108d9565b60408051600160a060020a039092168252519081900360200190f35b34801561032157600080fd5b506103456004803603604081101561033857600080fd5b50803590602001356108e8565b60408051928352600160a060020a0390911660208301528051918290030190f35b6101886004803603602081101561037c57600080fd5b503561092c565b34801561038f57600080fd5b50610188600480360360208110156103a657600080fd5b5035610b2d565b600060015b60025481116104045760008181526004602081905260409091200154831480156103ed575060008181526004602052604090206005015460ff165b156103fc57600191505061040a565b6001016103b2565b50600090505b919050565b60006020819052908152604090205481565b60025481565b336000908152602081905260408120548181111561048957336000818152602081905260408082208290555183156108fc0291849190818181858888f1935050505015156104895733600090815260208190526040812091909155905061048f565b60019150505b90565b600081815260046020526040902060050154819060ff1615156104ff576040805160e560020a62461bcd02815260206004820152601560248201527f41756374696f6e206973206e6f74206163746976650000000000000000000000604482015290519081900360640190fd5b60008281526004602052604090206002015482906509184e72a00001341015610572576040805160e560020a62461bcd02815260206004820152601660248201527f426964206973206e6f74206869676820656e6f75676800000000000000000000604482015290519081900360640190fd5b600083815260046020526040902060030154600160a060020a0316156105c85760008381526004602090815260408083206002810154600390910154600160a060020a0316845291839052909120805490910190555b60008381526004602090815260409182902034600282018190556003909101805473ffffffffffffffffffffffffffffffffffffffff1916339081179091558351878152928301528183015290517f0e54eff26401bf69b81b26f60bd85ef47f5d85275c1d268d84f68d6897431c479181900360600190a1505050565b6002805460019081018083556040805160c081018252828152602080820187815282840188815260006060808601828152608087018d815260a088018b8152998452600480885293899020975188559451998701999099559151858a0155965160038501805473ffffffffffffffffffffffffffffffffffffffff1916600160a060020a0390921691909117905590519583019590955592516005909101805460ff19169115159190911790559254835190815290810185905280830184905291517f44c53be110c6aa83aa83cd02e351ed172359268272ee1b5d31c0fe48db35c6c79281900390910190a15050565b6060806060600360008581526020019081526020016000208054905060405190808252806020026020018201604052801561077a578160200160208202803883390190505b509050606060036000868152602001908152602001600020805490506040519080825280602002602001820160405280156107bf578160200160208202803883390190505b50905060005b60008681526003602052604090205481101561088a5760008681526003602052604090208054829081106107f557fe5b906000526020600020906002020160000154838281518110151561081557fe5b6020908102909101810191909152600087815260039091526040902080548290811061083d57fe5b60009182526020909120600160029092020101548251600160a060020a039091169083908390811061086b57fe5b600160a060020a039092166020928302909101909101526001016107c5565b509092509050915091565b6004602081905260009182526040909120805460018201546002830154600384015494840154600590940154929491939092600160a060020a039092169160ff1686565b600154600160a060020a031681565b60036020528160005260406000208181548110151561090357fe5b600091825260209091206002909102018054600190910154909250600160a060020a0316905082565b600081815260046020526040902060050154819060ff161515610999576040805160e560020a62461bcd02815260206004820152601560248201527f41756374696f6e206973206e6f74206163746976650000000000000000000000604482015290519081900360640190fd5b60008281526004602052604090206002015482906509184e72a00001341015610a0c576040805160e560020a62461bcd02815260206004820152601660248201527f426964206973206e6f74206869676820656e6f75676800000000000000000000604482015290519081900360640190fd5b6000838152600360208181526040808420815180830183523481523381850190815282546001808201855593885285882092516002909102909201918255519101805473ffffffffffffffffffffffffffffffffffffffff1916600160a060020a039283161790558785526004909252909220015416156105c857600083815260046020818152604080842060028101805460039092018054600160a060020a031687528685528387208054909301909255948890529282523493849055825473ffffffffffffffffffffffffffffffffffffffff19163390811790935580518781529182019290925280820192909252517f0e54eff26401bf69b81b26f60bd85ef47f5d85275c1d268d84f68d6897431c479181900360600190a1505050565b60015b6002548111610dd6576000818152600460208190526040909120015482148015610b6b575060008181526004602052604090206005015460ff165b15610dce57600081815260046020526040902060030154600160a060020a03161515610c0a5760008181526004602090815260409182902060058101805460ff1916905560038101546002909101548351868152600160a060020a03909216928201929092528083019190915290517f63205d4b0571673d9c1d2319c4a2ed023943c9757f110eefffb8e2c1decdd1609181900360600190a150610dd8565b60015460008281526004602081905260408083206003015481517f679ebf1a000000000000000000000000000000000000000000000000000000008152928301879052600160a060020a039081166024840152905193169263679ebf1a9260448084019391929182900301818387803b158015610c8657600080fd5b505af1158015610c9a573d6000803e3d6000fd5b50505060008281526004602081815260408084206002015460015482517fad09340900000000000000000000000000000000000000000000000000000000815294850189905291519095508493600160a060020a039092169263ad0934099260248082019391829003018186803b158015610d1457600080fd5b505afa158015610d28573d6000803e3d6000fd5b505050506040513d6020811015610d3e57600080fd5b5051600160a060020a039081168252602082810193909352604091820160009081208054909501909455848452600483529281902060058101805460ff191690556003810154600290910154825187815291909416928101929092528181019290925290517f63205d4b0571673d9c1d2319c4a2ed023943c9757f110eefffb8e2c1decdd1609181900360600190a15b600101610b30565b505b5056fea165627a7a7230582088c56cb05000b5aaf53abbe3604614920cbcf2dcc58909e7fa7d436860c8980a0029",
  "source": "pragma solidity ^0.5.0;\r\n\r\nimport \"./Ticket.sol\";\r\nimport \"./Withdrawable.sol\";\r\n\r\ncontract TicketAuction is Withdrawable {\r\n    Ticket public ticketContract;\r\n\r\n    uint public auctionCount = 0;\r\n\r\n    // Auction details\r\n    struct Auction {\r\n        uint id;\r\n        uint startPrice;\r\n        uint highestBid;\r\n        address payable highestBidder;\r\n        uint ticketId;\r\n        bool active;\r\n    }\r\n\r\n    struct Bid {\r\n        uint value;\r\n        address payable bidder;\r\n    }\r\n\r\n    mapping(uint => Bid[]) public auctionBids;\r\n\r\n    mapping(uint => Auction) public auctions;\r\n\r\n    constructor(address _ticketContractAddress) public {\r\n        ticketContract = Ticket(_ticketContractAddress);\r\n    }\r\n\r\n    modifier isAuctionActive(uint _id) {\r\n        require(auctions[_id].active, \"Auction is not active\");\r\n        _;\r\n    }\r\n\r\n    modifier isBidHighEnough(uint _id) {\r\n        require(\r\n            msg.value >= auctions[_id].highestBid + 10000000000000,\r\n            \"Bid is not high enough\"\r\n        );\r\n        _;\r\n    }\r\n\r\n    event AuctionStarted(uint auctionId, uint ticketId, uint startPrice);\r\n\r\n    function startAuction(uint _ticketId, uint _startPrice) public {\r\n        // Start the auction\r\n        auctionCount++;\r\n        auctions[auctionCount] = Auction(\r\n            auctionCount,\r\n            _startPrice,\r\n            _startPrice, // Highest bid is the start price\r\n            address(0),\r\n            _ticketId,\r\n            true\r\n        );\r\n        emit AuctionStarted(auctionCount, _ticketId, _startPrice);\r\n    }\r\n\r\n\r\n    event AuctionEnd(uint ticketId, address winner, uint amount);\r\n\r\n    function bid(\r\n        uint _ticketId\r\n    ) public payable isAuctionActive(_ticketId) isBidHighEnough(_ticketId) {\r\n        // Refund the previous highest bidder\r\n        if (auctions[_ticketId].highestBidder != address(0)) {\r\n            pendingReturns[auctions[_ticketId].highestBidder] += auctions[\r\n                _ticketId\r\n            ].highestBid;\r\n        }\r\n\r\n        // Update the highest bid\r\n        auctions[_ticketId].highestBid = msg.value;\r\n        auctions[_ticketId].highestBidder = msg.sender;\r\n        emit BidPlaced(_ticketId, msg.sender, msg.value);\r\n    }\r\n\r\n    function endAuction(uint _ticketId) public {\r\n        for (uint i = 1; i <= auctionCount; i++) {\r\n            if (auctions[i].ticketId == _ticketId && auctions[i].active) {\r\n                if (auctions[i].highestBidder == address(0)) {\r\n                    // No bids were placed\r\n                    auctions[i].active = false;\r\n                    emit AuctionEnd(\r\n                        _ticketId,\r\n                        auctions[i].highestBidder,\r\n                        auctions[i].highestBid\r\n                    );\r\n                    return;\r\n                }\r\n                // Transfer the ticket to the winner\r\n                ticketContract.transferTicket(\r\n                    _ticketId,\r\n                    auctions[i].highestBidder\r\n                );\r\n                // Transfer the funds to the seller\r\n                pendingReturns[\r\n                    ticketContract.getTicketOwner(_ticketId)\r\n                ] += auctions[i].highestBid;\r\n                // End the auction\r\n                auctions[i].active = false;\r\n                emit AuctionEnd(\r\n                    _ticketId,\r\n                    auctions[i].highestBidder,\r\n                    auctions[i].highestBid\r\n                );\r\n            }\r\n        }\r\n    }\r\n\r\n    function getAuctionByTicketId(uint _ticketId) public view returns (bool) {\r\n        for (uint i = 1; i <= auctionCount; i++) {\r\n            if (auctions[i].ticketId == _ticketId && auctions[i].active) {\r\n                return true;\r\n            }\r\n        }\r\n        return false;\r\n    }\r\n\r\n    event BidPlaced(uint auctionId, address bidder, uint value);\r\n\r\n    function placeBid(\r\n        uint _auctionId\r\n    ) public payable isAuctionActive(_auctionId) isBidHighEnough(_auctionId) {\r\n        // Push the bid to the auction's bids array\r\n        auctionBids[_auctionId].push(Bid(msg.value, msg.sender));\r\n\r\n        if (auctions[_auctionId].highestBidder != address(0)) {\r\n            pendingReturns[auctions[_auctionId].highestBidder] += auctions[\r\n                _auctionId\r\n            ].highestBid;\r\n        }\r\n\r\n        // Update the highest bid and bidder\r\n        auctions[_auctionId].highestBid = msg.value;\r\n        auctions[_auctionId].highestBidder = msg.sender;\r\n\r\n        emit BidPlaced(_auctionId, msg.sender, msg.value);\r\n    }\r\n\r\n    function getBidsByAuctionId(uint _auctionId)\r\n        public\r\n        view\r\n        returns (uint[] memory, address[] memory)\r\n    {\r\n        uint[] memory values = new uint[](auctionBids[_auctionId].length);\r\n        address[] memory bidders = new address[](auctionBids[_auctionId].length);\r\n\r\n        for (uint i = 0; i < auctionBids[_auctionId].length; i++) {\r\n            values[i] = auctionBids[_auctionId][i].value;\r\n            bidders[i] = auctionBids[_auctionId][i].bidder;\r\n        }\r\n\r\n        return (values, bidders);\r\n    }\r\n}\r\n",
  "sourcePath": "D:/Facultate/ProiectBlockchainTruffle/contracts/TicketAuction.sol",
  "compiler": {
    "name": "solc",
    "version": "0.5.0+commit.1d4f565a.Emscripten.clang"
  },
  "schemaVersion": "3.0.1",
  "updatedAt": "2024-05-15T20:09:44.908Z",
  "devdoc": {
    "methods": {}
  },
  "userdoc": {
    "methods": {}
  }
}