{
  "contractName": "Ticket",
  "abi": [
    {
      "constant": true,
      "inputs": [
        {
          "name": "",
          "type": "uint256"
        }
      ],
      "name": "tickets",
      "outputs": [
        {
          "name": "id",
          "type": "uint256"
        },
        {
          "name": "name",
          "type": "string"
        },
        {
          "name": "description",
          "type": "string"
        },
        {
          "name": "price",
          "type": "uint256"
        },
        {
          "name": "owner",
          "type": "address"
        },
        {
          "name": "forSale",
          "type": "bool"
        }
      ],
      "payable": false,
      "stateMutability": "view",
      "type": "function",
      "signature": "0x50b44712"
    },
    {
      "constant": true,
      "inputs": [],
      "name": "ticketCount",
      "outputs": [
        {
          "name": "",
          "type": "uint256"
        }
      ],
      "payable": false,
      "stateMutability": "view",
      "type": "function",
      "signature": "0xcfbd900f"
    },
    {
      "inputs": [],
      "payable": false,
      "stateMutability": "nonpayable",
      "type": "constructor",
      "signature": "constructor"
    },
    {
      "anonymous": false,
      "inputs": [
        {
          "indexed": false,
          "name": "id",
          "type": "uint256"
        },
        {
          "indexed": false,
          "name": "name",
          "type": "string"
        },
        {
          "indexed": false,
          "name": "description",
          "type": "string"
        },
        {
          "indexed": false,
          "name": "price",
          "type": "uint256"
        },
        {
          "indexed": false,
          "name": "owner",
          "type": "address"
        },
        {
          "indexed": false,
          "name": "forSale",
          "type": "bool"
        }
      ],
      "name": "TicketCreated",
      "type": "event",
      "signature": "0x7a930ff389b66bb8b8dcf10a6b04c8c90fca9c9a06c590c554d49fe91c36f4be"
    },
    {
      "constant": false,
      "inputs": [
        {
          "name": "_name",
          "type": "string"
        },
        {
          "name": "_description",
          "type": "string"
        }
      ],
      "name": "createTicket",
      "outputs": [],
      "payable": false,
      "stateMutability": "nonpayable",
      "type": "function",
      "signature": "0x942b223a"
    },
    {
      "constant": true,
      "inputs": [
        {
          "name": "_account",
          "type": "address"
        }
      ],
      "name": "getAccountTickets",
      "outputs": [
        {
          "name": "",
          "type": "uint256[]"
        }
      ],
      "payable": false,
      "stateMutability": "view",
      "type": "function",
      "signature": "0x239b8376"
    }
  ],
  "bytecode": "0x60806040526000805534801561001457600080fd5b506100986040805190810160405280600881526020017f436f6c64706c61790000000000000000000000000000000000000000000000008152506040805190810160405280601781526020017f436f6e63657274204172656e61204e6174696f6e616c6100000000000000000081525061009d640100000000026401000000009004565b61034d565b6000805460019081018083556040805160c08101825282815260208082018881528284018890526060830187905233608084015260a0830187905293865284815291909420845181559151805192936100fe939085019291909101906102b2565b506040820151805161011a9160028401916020909101906102b2565b5060608281015160038301556080808401516004909301805460a0958601511515740100000000000000000000000000000000000000000260a060020a60ff0219600160a060020a03909616600160a060020a031990921691909117949094169390931790925560008054604080518281529384018390523394840185905294830182905260c0602080850182815289519286019290925288517f7a930ff389b66bb8b8dcf10a6b04c8c90fca9c9a06c590c554d49fe91c36f4be9793968a968a9695919486949193909284019160e0850191908a0190808383895b8381101561020e5781810151838201526020016101f6565b50505050905090810190601f16801561023b5780820380516001836020036101000a031916815260200191505b50838103825287518152875160209182019189019080838360005b8381101561026e578181015183820152602001610256565b50505050905090810190601f16801561029b5780820380516001836020036101000a031916815260200191505b509850505050505050505060405180910390a15050565b828054600181600116156101000203166002900490600052602060002090601f016020900481019282601f106102f357805160ff1916838001178555610320565b82800160010185558215610320579182015b82811115610320578251825591602001919060010190610305565b5061032c929150610330565b5090565b61034a91905b8082111561032c5760008155600101610336565b90565b6108d18061035c6000396000f3fe6080604052600436106100615763ffffffff7c0100000000000000000000000000000000000000000000000000000000600035041663239b8376811461006657806350b44712146100f6578063942b223a1461024a578063cfbd900f14610386575b600080fd5b34801561007257600080fd5b506100a66004803603602081101561008957600080fd5b503573ffffffffffffffffffffffffffffffffffffffff166103ad565b60408051602080825283518183015283519192839290830191858101910280838360005b838110156100e25781810151838201526020016100ca565b505050509050019250505060405180910390f35b34801561010257600080fd5b506101206004803603602081101561011957600080fd5b5035610450565b6040518087815260200180602001806020018681526020018573ffffffffffffffffffffffffffffffffffffffff1673ffffffffffffffffffffffffffffffffffffffff16815260200184151515158152602001838103835288818151815260200191508051906020019080838360005b838110156101a9578181015183820152602001610191565b50505050905090810190601f1680156101d65780820380516001836020036101000a031916815260200191505b50838103825287518152875160209182019189019080838360005b838110156102095781810151838201526020016101f1565b50505050905090810190601f1680156102365780820380516001836020036101000a031916815260200191505b509850505050505050505060405180910390f35b34801561025657600080fd5b506103846004803603604081101561026d57600080fd5b81019060208101813564010000000081111561028857600080fd5b82018360208201111561029a57600080fd5b803590602001918460018302840111640100000000831117156102bc57600080fd5b91908080601f016020809104026020016040519081016040528093929190818152602001838380828437600092019190915250929594936020810193503591505064010000000081111561030f57600080fd5b82018360208201111561032157600080fd5b8035906020019184600183028401116401000000008311171561034357600080fd5b91908080601f0160208091040260200160405190810160405280939291908181526020018383808284376000920191909152509295506105c7945050505050565b005b34801561039257600080fd5b5061039b610804565b60408051918252519081900360200190f35b6060806000546040519080825280602002602001820160405280156103dc578160200160208202803883390190505b509050600060015b60005481116104475760008181526001602052604090206004015473ffffffffffffffffffffffffffffffffffffffff8681169116141561043f5780838381518110151561042e57fe5b602090810290910101526001909101905b6001016103e4565b50909392505050565b600160208181526000928352604092839020805481840180548651600296821615610100026000190190911695909504601f810185900485028601850190965285855290949193929091908301828280156104ec5780601f106104c1576101008083540402835291602001916104ec565b820191906000526020600020905b8154815290600101906020018083116104cf57829003601f168201915b50505060028085018054604080516020601f600019610100600187161502019094169590950492830185900485028101850190915281815295969594509092509083018282801561057e5780601f106105535761010080835404028352916020019161057e565b820191906000526020600020905b81548152906001019060200180831161056157829003601f168201915b50505050600383015460049093015491929173ffffffffffffffffffffffffffffffffffffffff8116915074010000000000000000000000000000000000000000900460ff1686565b6000805460019081018083556040805160c08101825282815260208082018881528284018890526060830187905233608084015260a0830187905293865284815291909420845181559151805192936106289390850192919091019061080a565b506040820151805161064491600284019160209091019061080a565b5060608281015160038301556080808401516004909301805460a0958601511515740100000000000000000000000000000000000000000274ff00000000000000000000000000000000000000001973ffffffffffffffffffffffffffffffffffffffff90961673ffffffffffffffffffffffffffffffffffffffff1990921691909117949094169390931790925560008054604080518281529384018390523394840185905294830182905260c0602080850182815289519286019290925288517f7a930ff389b66bb8b8dcf10a6b04c8c90fca9c9a06c590c554d49fe91c36f4be9793968a968a9695919486949193909284019160e0850191908a0190808383895b83811015610760578181015183820152602001610748565b50505050905090810190601f16801561078d5780820380516001836020036101000a031916815260200191505b50838103825287518152875160209182019189019080838360005b838110156107c05781810151838201526020016107a8565b50505050905090810190601f1680156107ed5780820380516001836020036101000a031916815260200191505b509850505050505050505060405180910390a15050565b60005481565b828054600181600116156101000203166002900490600052602060002090601f016020900481019282601f1061084b57805160ff1916838001178555610878565b82800160010185558215610878579182015b8281111561087857825182559160200191906001019061085d565b50610884929150610888565b5090565b6108a291905b80821115610884576000815560010161088e565b9056fea165627a7a723058207a798ce002cb4f29211ce09c462d01039690259e15cc143ce71903754f8e272f0029",
  "source": "pragma solidity ^0.5.0;\r\n\r\n// SPDX-License-Identifier: UNLICENSED\r\n\r\n\r\ncontract Ticket{\r\n    uint public ticketCount = 0;\r\n\r\n    struct TicketStruct{\r\n        uint id;\r\n        string name;\r\n        string description;\r\n        uint price;\r\n        address payable owner;\r\n        bool forSale;\r\n    }\r\n\r\n    mapping(uint => TicketStruct) public tickets;\r\n\r\n    event TicketCreated(\r\n        uint id,\r\n        string name,\r\n        string description,\r\n        uint price,\r\n        address payable owner,\r\n        bool forSale\r\n    );\r\n\r\n    constructor() public{\r\n        createTicket(\"Coldplay\", \"Concert Arena Nationala\");\r\n    }\r\n\r\n    function createTicket(string memory _name, string memory _description) public{\r\n        ticketCount++;\r\n        tickets[ticketCount] = TicketStruct(ticketCount, _name, _description, 0, msg.sender, false);\r\n        emit TicketCreated(ticketCount, _name, _description, 0, msg.sender, false);\r\n    }\r\n\r\n    function getAccountTickets(address _account) public view returns(uint[] memory){\r\n        uint[] memory result = new uint[](ticketCount);\r\n        uint counter = 0;\r\n        for(uint i = 1; i <= ticketCount; i++){\r\n            if(tickets[i].owner == _account){\r\n                result[counter] = i;\r\n                counter++;\r\n            }\r\n        }\r\n        return result;\r\n    }\r\n}\r\n\r\n\r\n",
  "sourcePath": "D:/Facultate/ProiectBlockchainTruffle/contracts/Ticket.sol",
  "compiler": {
    "name": "solc",
    "version": "0.5.0+commit.1d4f565a.Emscripten.clang"
  },
  "schemaVersion": "3.0.1",
  "updatedAt": "2024-05-13T20:45:55.706Z",
  "devdoc": {
    "methods": {}
  },
  "userdoc": {
    "methods": {}
  }
}