{
  "contractName": "Ticket",
  "abi": [
    {
      "constant": true,
      "inputs": [
        {
          "name": "",
          "type": "uint256"
        }
      ],
      "name": "tickets",
      "outputs": [
        {
          "name": "id",
          "type": "uint256"
        },
        {
          "name": "name",
          "type": "string"
        },
        {
          "name": "description",
          "type": "string"
        },
        {
          "name": "price",
          "type": "uint256"
        },
        {
          "name": "owner",
          "type": "address"
        },
        {
          "name": "purchased",
          "type": "bool"
        }
      ],
      "payable": false,
      "stateMutability": "view",
      "type": "function",
      "signature": "0x50b44712"
    },
    {
      "constant": true,
      "inputs": [],
      "name": "ticketCount",
      "outputs": [
        {
          "name": "",
          "type": "uint256"
        }
      ],
      "payable": false,
      "stateMutability": "view",
      "type": "function",
      "signature": "0xcfbd900f"
    },
    {
      "inputs": [],
      "payable": false,
      "stateMutability": "nonpayable",
      "type": "constructor",
      "signature": "constructor"
    },
    {
      "constant": false,
      "inputs": [
        {
          "name": "_name",
          "type": "string"
        },
        {
          "name": "_description",
          "type": "string"
        },
        {
          "name": "_price",
          "type": "uint256"
        }
      ],
      "name": "createTicket",
      "outputs": [],
      "payable": false,
      "stateMutability": "nonpayable",
      "type": "function",
      "signature": "0x1af4d702"
    },
    {
      "constant": true,
      "inputs": [
        {
          "name": "_account",
          "type": "address"
        }
      ],
      "name": "getAccountTickets",
      "outputs": [
        {
          "name": "",
          "type": "uint256[]"
        }
      ],
      "payable": false,
      "stateMutability": "view",
      "type": "function",
      "signature": "0x239b8376"
    }
  ],
  "bytecode": "0x60806040526000805534801561001457600080fd5b5061009a6040805190810160405280600881526020017f436f6c64706c61790000000000000000000000000000000000000000000000008152506040805190810160405280601781526020017f436f6e63657274204172656e61204e6174696f6e616c61000000000000000000815250600a61009f640100000000026401000000009004565b610220565b6000805460019081018083556040805160c08101825282815260208082018981528284018990526060830188905233608084015260a08301879052938652848152919094208451815591518051929361010093908501929190910190610185565b506040820151805161011c916002840191602090910190610185565b506060820151600382015560808201516004909101805460a0909301511515740100000000000000000000000000000000000000000260a060020a60ff0219600160a060020a03909316600160a060020a03199094169390931791909116919091179055505050565b828054600181600116156101000203166002900490600052602060002090601f016020900481019282601f106101c657805160ff19168380011785556101f3565b828001600101855582156101f3579182015b828111156101f35782518255916020019190600101906101d8565b506101ff929150610203565b5090565b61021d91905b808211156101ff5760008155600101610209565b90565b6107a48061022f6000396000f3fe6080604052600436106100615763ffffffff7c01000000000000000000000000000000000000000000000000000000006000350416631af4d7028114610066578063239b8376146101a457806350b4471214610234578063cfbd900f14610388575b600080fd5b34801561007257600080fd5b506101a26004803603606081101561008957600080fd5b8101906020810181356401000000008111156100a457600080fd5b8201836020820111156100b657600080fd5b803590602001918460018302840111640100000000831117156100d857600080fd5b91908080601f016020809104026020016040519081016040528093929190818152602001838380828437600092019190915250929594936020810193503591505064010000000081111561012b57600080fd5b82018360208201111561013d57600080fd5b8035906020019184600183028401116401000000008311171561015f57600080fd5b91908080601f01602080910402602001604051908101604052809392919081815260200183838082843760009201919091525092955050913592506103af915050565b005b3480156101b057600080fd5b506101e4600480360360208110156101c757600080fd5b503573ffffffffffffffffffffffffffffffffffffffff166104bd565b60408051602080825283518183015283519192839290830191858101910280838360005b83811015610220578181015183820152602001610208565b505050509050019250505060405180910390f35b34801561024057600080fd5b5061025e6004803603602081101561025757600080fd5b5035610560565b6040518087815260200180602001806020018681526020018573ffffffffffffffffffffffffffffffffffffffff1673ffffffffffffffffffffffffffffffffffffffff16815260200184151515158152602001838103835288818151815260200191508051906020019080838360005b838110156102e75781810151838201526020016102cf565b50505050905090810190601f1680156103145780820380516001836020036101000a031916815260200191505b50838103825287518152875160209182019189019080838360005b8381101561034757818101518382015260200161032f565b50505050905090810190601f1680156103745780820380516001836020036101000a031916815260200191505b509850505050505050505060405180910390f35b34801561039457600080fd5b5061039d6106d7565b60408051918252519081900360200190f35b6000805460019081018083556040805160c08101825282815260208082018981528284018990526060830188905233608084015260a083018790529386528481529190942084518155915180519293610410939085019291909101906106dd565b506040820151805161042c9160028401916020909101906106dd565b506060820151600382015560808201516004909101805460a0909301511515740100000000000000000000000000000000000000000274ff00000000000000000000000000000000000000001973ffffffffffffffffffffffffffffffffffffffff90931673ffffffffffffffffffffffffffffffffffffffff199094169390931791909116919091179055505050565b6060806000546040519080825280602002602001820160405280156104ec578160200160208202803883390190505b509050600060015b60005481116105575760008181526001602052604090206004015473ffffffffffffffffffffffffffffffffffffffff8681169116141561054f5780838381518110151561053e57fe5b602090810290910101526001909101905b6001016104f4565b50909392505050565b600160208181526000928352604092839020805481840180548651600296821615610100026000190190911695909504601f810185900485028601850190965285855290949193929091908301828280156105fc5780601f106105d1576101008083540402835291602001916105fc565b820191906000526020600020905b8154815290600101906020018083116105df57829003601f168201915b50505060028085018054604080516020601f600019610100600187161502019094169590950492830185900485028101850190915281815295969594509092509083018282801561068e5780601f106106635761010080835404028352916020019161068e565b820191906000526020600020905b81548152906001019060200180831161067157829003601f168201915b50505050600383015460049093015491929173ffffffffffffffffffffffffffffffffffffffff8116915074010000000000000000000000000000000000000000900460ff1686565b60005481565b828054600181600116156101000203166002900490600052602060002090601f016020900481019282601f1061071e57805160ff191683800117855561074b565b8280016001018555821561074b579182015b8281111561074b578251825591602001919060010190610730565b5061075792915061075b565b5090565b61077591905b808211156107575760008155600101610761565b9056fea165627a7a72305820a69e25e88359a81d05e3b2d53afec1ece9073321deb918dc0ce818d4106671800029",
  "source": "pragma solidity ^0.5.0;\r\n\r\n// SPDX-License-Identifier: UNLICENSED\r\n\r\n\r\ncontract Ticket{\r\n    uint public ticketCount = 0;\r\n\r\n    struct TicketStruct{\r\n        uint id;\r\n        string name;\r\n        string description;\r\n        uint price;\r\n        address payable owner;\r\n        bool purchased;\r\n    }\r\n\r\n    mapping(uint => TicketStruct) public tickets;\r\n\r\n    constructor() public{\r\n        createTicket(\"Coldplay\", \"Concert Arena Nationala\", 10);\r\n    }\r\n\r\n    function createTicket(string memory _name, string memory _description, uint _price) public{\r\n        ticketCount++;\r\n        tickets[ticketCount] = TicketStruct(ticketCount, _name, _description, _price, msg.sender, false);\r\n    }\r\n\r\n    function getAccountTickets(address _account) public view returns(uint[] memory){\r\n        uint[] memory result = new uint[](ticketCount);\r\n        uint counter = 0;\r\n        for(uint i = 1; i <= ticketCount; i++){\r\n            if(tickets[i].owner == _account){\r\n                result[counter] = i;\r\n                counter++;\r\n            }\r\n        }\r\n        return result;\r\n    }\r\n\r\n\r\n}\r\n\r\n\r\n",
  "sourcePath": "D:/Facultate/ProiectBlockchainTruffle/contracts/Ticket.sol",
  "compiler": {
    "name": "solc",
    "version": "0.5.0+commit.1d4f565a.Emscripten.clang"
  },
  "schemaVersion": "3.0.1",
  "updatedAt": "2024-05-13T18:49:36.954Z",
  "devdoc": {
    "methods": {}
  },
  "userdoc": {
    "methods": {}
  }
}