{
  "contractName": "TicketAuction",
  "abi": [
    {
      "constant": true,
      "inputs": [],
      "name": "auctionCount",
      "outputs": [
        {
          "name": "",
          "type": "uint256"
        }
      ],
      "payable": false,
      "stateMutability": "view",
      "type": "function",
      "signature": "0x2ad71573"
    },
    {
      "constant": false,
      "inputs": [
        {
          "name": "auctionId",
          "type": "uint256"
        }
      ],
      "name": "withdraw",
      "outputs": [
        {
          "name": "",
          "type": "bool"
        }
      ],
      "payable": false,
      "stateMutability": "nonpayable",
      "type": "function",
      "signature": "0x2e1a7d4d"
    },
    {
      "constant": true,
      "inputs": [
        {
          "name": "",
          "type": "uint256"
        }
      ],
      "name": "auctions",
      "outputs": [
        {
          "name": "id",
          "type": "uint256"
        },
        {
          "name": "startPrice",
          "type": "uint256"
        },
        {
          "name": "highestBid",
          "type": "uint256"
        },
        {
          "name": "highestBidder",
          "type": "address"
        },
        {
          "name": "ticketId",
          "type": "uint256"
        },
        {
          "name": "active",
          "type": "bool"
        }
      ],
      "payable": false,
      "stateMutability": "view",
      "type": "function",
      "signature": "0x571a26a0"
    },
    {
      "constant": true,
      "inputs": [],
      "name": "ticketContract",
      "outputs": [
        {
          "name": "",
          "type": "address"
        }
      ],
      "payable": false,
      "stateMutability": "view",
      "type": "function",
      "signature": "0x58a86e1d"
    },
    {
      "constant": true,
      "inputs": [
        {
          "name": "",
          "type": "uint256"
        },
        {
          "name": "",
          "type": "uint256"
        }
      ],
      "name": "auctionBids",
      "outputs": [
        {
          "name": "value",
          "type": "uint256"
        },
        {
          "name": "bidder",
          "type": "address"
        }
      ],
      "payable": false,
      "stateMutability": "view",
      "type": "function",
      "signature": "0x5f93de49"
    },
    {
      "constant": true,
      "inputs": [
        {
          "name": "",
          "type": "uint256"
        },
        {
          "name": "",
          "type": "address"
        }
      ],
      "name": "pendingReturns",
      "outputs": [
        {
          "name": "",
          "type": "uint256"
        }
      ],
      "payable": false,
      "stateMutability": "view",
      "type": "function",
      "signature": "0x8ddac1ef"
    },
    {
      "inputs": [
        {
          "name": "_ticketContractAddress",
          "type": "address"
        }
      ],
      "payable": false,
      "stateMutability": "nonpayable",
      "type": "constructor",
      "signature": "constructor"
    },
    {
      "anonymous": false,
      "inputs": [
        {
          "indexed": false,
          "name": "auctionId",
          "type": "uint256"
        },
        {
          "indexed": false,
          "name": "ticketId",
          "type": "uint256"
        },
        {
          "indexed": false,
          "name": "startPrice",
          "type": "uint256"
        }
      ],
      "name": "AuctionStarted",
      "type": "event",
      "signature": "0x44c53be110c6aa83aa83cd02e351ed172359268272ee1b5d31c0fe48db35c6c7"
    },
    {
      "anonymous": false,
      "inputs": [
        {
          "indexed": false,
          "name": "auctionId",
          "type": "uint256"
        },
        {
          "indexed": false,
          "name": "winner",
          "type": "address"
        },
        {
          "indexed": false,
          "name": "amount",
          "type": "uint256"
        }
      ],
      "name": "AuctionEnd",
      "type": "event",
      "signature": "0x63205d4b0571673d9c1d2319c4a2ed023943c9757f110eefffb8e2c1decdd160"
    },
    {
      "anonymous": false,
      "inputs": [
        {
          "indexed": false,
          "name": "auctionId",
          "type": "uint256"
        },
        {
          "indexed": false,
          "name": "bidder",
          "type": "address"
        },
        {
          "indexed": false,
          "name": "value",
          "type": "uint256"
        }
      ],
      "name": "BidPlaced",
      "type": "event",
      "signature": "0x0e54eff26401bf69b81b26f60bd85ef47f5d85275c1d268d84f68d6897431c47"
    },
    {
      "anonymous": false,
      "inputs": [
        {
          "indexed": false,
          "name": "auctionId",
          "type": "uint256"
        },
        {
          "indexed": false,
          "name": "account",
          "type": "address"
        },
        {
          "indexed": false,
          "name": "amount",
          "type": "uint256"
        }
      ],
      "name": "WithdrawAllReturns",
      "type": "event",
      "signature": "0x4c0b8d1685c27149f2d30f237c69dfee42a416e401b9e6ad839bece397fb90f9"
    },
    {
      "constant": false,
      "inputs": [
        {
          "name": "_ticketId",
          "type": "uint256"
        },
        {
          "name": "_startPrice",
          "type": "uint256"
        }
      ],
      "name": "startAuction",
      "outputs": [],
      "payable": false,
      "stateMutability": "nonpayable",
      "type": "function",
      "signature": "0x4fee13fc"
    },
    {
      "constant": false,
      "inputs": [
        {
          "name": "_auctionId",
          "type": "uint256"
        }
      ],
      "name": "endAuction",
      "outputs": [],
      "payable": false,
      "stateMutability": "nonpayable",
      "type": "function",
      "signature": "0xb9a2de3a"
    },
    {
      "constant": true,
      "inputs": [
        {
          "name": "_ticketId",
          "type": "uint256"
        }
      ],
      "name": "getAuctionByTicketId",
      "outputs": [
        {
          "name": "",
          "type": "bool"
        }
      ],
      "payable": false,
      "stateMutability": "view",
      "type": "function",
      "signature": "0x1cea825e"
    },
    {
      "constant": false,
      "inputs": [
        {
          "name": "_auctionId",
          "type": "uint256"
        }
      ],
      "name": "placeBid",
      "outputs": [],
      "payable": true,
      "stateMutability": "payable",
      "type": "function",
      "signature": "0x9979ef45"
    },
    {
      "constant": true,
      "inputs": [
        {
          "name": "_auctionId",
          "type": "uint256"
        }
      ],
      "name": "getBidsByAuctionId",
      "outputs": [
        {
          "name": "",
          "type": "uint256[]"
        },
        {
          "name": "",
          "type": "address[]"
        }
      ],
      "payable": false,
      "stateMutability": "view",
      "type": "function",
      "signature": "0x56144606"
    },
    {
      "constant": true,
      "inputs": [
        {
          "name": "_auctionId",
          "type": "uint256"
        },
        {
          "name": "account",
          "type": "address"
        }
      ],
      "name": "checkPendingReturns",
      "outputs": [
        {
          "name": "",
          "type": "bool"
        }
      ],
      "payable": false,
      "stateMutability": "view",
      "type": "function",
      "signature": "0x1e995d5f"
    },
    {
      "constant": true,
      "inputs": [
        {
          "name": "account",
          "type": "address"
        }
      ],
      "name": "getTotalValuePendingReturns",
      "outputs": [
        {
          "name": "",
          "type": "uint256"
        }
      ],
      "payable": false,
      "stateMutability": "view",
      "type": "function",
      "signature": "0x2cc8531d"
    },
    {
      "constant": false,
      "inputs": [
        {
          "name": "account",
          "type": "address"
        }
      ],
      "name": "withdrawAllReturns",
      "outputs": [],
      "payable": false,
      "stateMutability": "nonpayable",
      "type": "function",
      "signature": "0x2dc74fad"
    }
  ],
  "bytecode": "0x6080604052600060025534801561001557600080fd5b50604051602080610faf8339810180604052602081101561003557600080fd5b505160018054600160a060020a031916600160a060020a03909216919091179055610f4a806100656000396000f3fe6080604052600436106100cf5763ffffffff7c01000000000000000000000000000000000000000000000000000000006000350416631cea825e81146100d45780631e995d5f146101125780632ad715731461014b5780632cc8531d146101725780632dc74fad146101a55780632e1a7d4d146101da5780634fee13fc146102045780635614460614610234578063571a26a0146102f757806358a86e1d1461035e5780635f93de491461038f5780638ddac1ef146103e05780639979ef4514610419578063b9a2de3a14610436575b600080fd5b3480156100e057600080fd5b506100fe600480360360208110156100f757600080fd5b5035610460565b604080519115158252519081900360200190f35b34801561011e57600080fd5b506100fe6004803603604081101561013557600080fd5b5080359060200135600160a060020a03166104c2565b34801561015757600080fd5b506101606104e9565b60408051918252519081900360200190f35b34801561017e57600080fd5b506101606004803603602081101561019557600080fd5b5035600160a060020a03166104ef565b3480156101b157600080fd5b506101d8600480360360208110156101c857600080fd5b5035600160a060020a031661054f565b005b3480156101e657600080fd5b506100fe600480360360208110156101fd57600080fd5b5035610662565b34801561021057600080fd5b506101d86004803603604081101561022757600080fd5b50803590602001356106e6565b34801561024057600080fd5b5061025e6004803603602081101561025757600080fd5b50356107d6565b604051808060200180602001838103835285818151815260200191508051906020019060200280838360005b838110156102a257818101518382015260200161028a565b50505050905001838103825284818151815260200191508051906020019060200280838360005b838110156102e15781810151838201526020016102c9565b5050505090500194505050505060405180910390f35b34801561030357600080fd5b506103216004803603602081101561031a57600080fd5b5035610936565b60408051968752602087019590955285850193909352600160a060020a0390911660608501526080840152151560a0830152519081900360c00190f35b34801561036a57600080fd5b5061037361097a565b60408051600160a060020a039092168252519081900360200190f35b34801561039b57600080fd5b506103bf600480360360408110156103b257600080fd5b5080359060200135610989565b60408051928352600160a060020a0390911660208301528051918290030190f35b3480156103ec57600080fd5b506101606004803603604081101561040357600080fd5b5080359060200135600160a060020a03166109cd565b6101d86004803603602081101561042f57600080fd5b50356109e7565b34801561044257600080fd5b506101d86004803603602081101561045957600080fd5b5035610c27565b600060015b60025481116104b75760008181526004602081905260409091200154831480156104a0575060008181526004602052604090206005015460ff165b156104af5760019150506104bd565b600101610465565b50600090505b919050565b600091825260208281526040808420600160a060020a039390931684529190528120541190565b60025481565b60008060015b60025481116105485760008181526004602052604090206005015460ff16151561054057600081815260208181526040808320600160a060020a038816845290915290205491909101905b6001016104f5565b5092915050565b60015b60025481116105fc5760008181526004602052604090206005015460ff1615801561059b5750600081815260208181526040808320600160a060020a0386168452909152812054115b156105f457600081815260208181526040808320600160a060020a0386168085529252808320805490849055905190926108fc841502918491818181858888f193505050501580156105f1573d6000803e3d6000fd5b50505b600101610552565b50600254600081815260208181526040808320600160a060020a038616808552908352928190205481519485529184019290925282820152517f4c0b8d1685c27149f2d30f237c69dfee42a416e401b9e6ad839bece397fb90f99181900360600190a150565b600081815260208181526040808320338452909152812054818111156106dd5760008381526020818152604080832033808552925280832083905551909183156108fc02918491818181858888f1935050505015156106dd5760008381526020818152604080832033845290915281209190915590506104bd565b50600192915050565b6002805460019081018083556040805160c081018252828152602080820187815282840188815260006060808601828152608087018d815260a088018b8152998452600480885293899020975188559451998701999099559151858a0155965160038501805473ffffffffffffffffffffffffffffffffffffffff1916600160a060020a0390921691909117905590519583019590955592516005909101805460ff19169115159190911790559254835190815290810185905280830184905291517f44c53be110c6aa83aa83cd02e351ed172359268272ee1b5d31c0fe48db35c6c79281900390910190a15050565b6060806060600360008581526020019081526020016000208054905060405190808252806020026020018201604052801561081b578160200160208202803883390190505b50905060606003600086815260200190815260200160002080549050604051908082528060200260200182016040528015610860578160200160208202803883390190505b50905060005b60008681526003602052604090205481101561092b57600086815260036020526040902080548290811061089657fe5b90600052602060002090600202016000015483828151811015156108b657fe5b602090810290910181019190915260008781526003909152604090208054829081106108de57fe5b60009182526020909120600160029092020101548251600160a060020a039091169083908390811061090c57fe5b600160a060020a03909216602092830290910190910152600101610866565b509092509050915091565b6004602081905260009182526040909120805460018201546002830154600384015494840154600590940154929491939092600160a060020a039092169160ff1686565b600154600160a060020a031681565b6003602052816000526040600020818154811015156109a457fe5b600091825260209091206002909102018054600190910154909250600160a060020a0316905082565b600060208181529281526040808220909352908152205481565b600081815260046020526040902060050154819060ff161515610a6b57604080517f08c379a000000000000000000000000000000000000000000000000000000000815260206004820152601560248201527f41756374696f6e206973206e6f74206163746976650000000000000000000000604482015290519081900360640190fd5b60008281526004602052604090206002015482906509184e72a00001341015610af557604080517f08c379a000000000000000000000000000000000000000000000000000000000815260206004820152601660248201527f426964206973206e6f74206869676820656e6f75676800000000000000000000604482015290519081900360640190fd5b6000838152600360208181526040808420815180830183523481523381850190815282546001808201855593885285882092516002909102909201918255519101805473ffffffffffffffffffffffffffffffffffffffff1916600160a060020a03928316179055878552600490925290922001541615610baa5760008381526004602090815260408083206002810154848452828520600390920154600160a060020a031685529252909120805490910190555b60008381526004602090815260409182902034600282018190556003909101805473ffffffffffffffffffffffffffffffffffffffff1916339081179091558351878152928301528183015290517f0e54eff26401bf69b81b26f60bd85ef47f5d85275c1d268d84f68d6897431c479181900360600190a1505050565b60008181526004602052604090206005015460ff161515610ca957604080517f08c379a000000000000000000000000000000000000000000000000000000000815260206004820152601560248201527f41756374696f6e206973206e6f74206163746976650000000000000000000000604482015290519081900360640190fd5b600081815260046020526040902060030154600160a060020a03161515610d425760008181526004602090815260409182902060058101805460ff1916905560038101546002909101548351858152600160a060020a03909216928201929092528083019190915290517f63205d4b0571673d9c1d2319c4a2ed023943c9757f110eefffb8e2c1decdd1609181900360600190a1610f1b565b600081815260046020818152604080842060028101548584528286206001548686529286015484517fad093409000000000000000000000000000000000000000000000000000000008152968701529251909592949293600160a060020a039092169263ad093409926024808301939192829003018186803b158015610dc757600080fd5b505afa158015610ddb573d6000803e3d6000fd5b505050506040513d6020811015610df157600080fd5b5051600160a060020a0390811682526020828101939093526040918201600090812080549095019094556001548585526004938490528285208085015460039091015484517f679ebf1a0000000000000000000000000000000000000000000000000000000081529586019190915282166024850152915191169263679ebf1a926044808201939182900301818387803b158015610e8e57600080fd5b505af1158015610ea2573d6000803e3d6000fd5b50505060008281526004602090815260409182902060058101805460ff1916905560038101546002909101548351868152600160a060020a03909216928201929092528083019190915290517f63205d4b0571673d9c1d2319c4a2ed023943c9757f110eefffb8e2c1decdd16092509081900360600190a15b5056fea165627a7a72305820285092f9fc51f422744ebbbf9304647b8655588e2ce71564bd5ecdc5cb337ccb0029",
  "source": "pragma solidity ^0.5.0;\r\n\r\nimport \"./Ticket.sol\";\r\nimport \"./Withdrawable.sol\";\r\n\r\ncontract TicketAuction is Withdrawable {\r\n    Ticket public ticketContract;\r\n\r\n    uint public auctionCount = 0;\r\n\r\n    // Auction details\r\n    struct Auction {\r\n        uint id;\r\n        uint startPrice;\r\n        uint highestBid;\r\n        address payable highestBidder;\r\n        uint ticketId;\r\n        bool active;\r\n    }\r\n\r\n    struct Bid {\r\n        uint value;\r\n        address payable bidder;\r\n    }\r\n\r\n    mapping(uint => Bid[]) public auctionBids;\r\n\r\n    mapping(uint => Auction) public auctions;\r\n\r\n    constructor(address _ticketContractAddress) public {\r\n        ticketContract = Ticket(_ticketContractAddress);\r\n    }\r\n\r\n    modifier isAuctionActive(uint _id) {\r\n        require(auctions[_id].active, \"Auction is not active\");\r\n        _;\r\n    }\r\n\r\n    modifier isBidHighEnough(uint _id) {\r\n        require(\r\n            msg.value >= auctions[_id].highestBid + 10000000000000,\r\n            \"Bid is not high enough\"\r\n        );\r\n        _;\r\n    }\r\n\r\n    event AuctionStarted(uint auctionId, uint ticketId, uint startPrice);\r\n\r\n    function startAuction(uint _ticketId, uint _startPrice) public {\r\n        // Start the auction\r\n        auctionCount++;\r\n        auctions[auctionCount] = Auction(\r\n            auctionCount,\r\n            _startPrice,\r\n            _startPrice, // Highest bid is the start price\r\n            address(0),\r\n            _ticketId,\r\n            true\r\n        );\r\n        emit AuctionStarted(auctionCount, _ticketId, _startPrice);\r\n    }\r\n\r\n    event AuctionEnd(uint auctionId, address winner, uint amount);\r\n\r\n    function endAuction(uint _auctionId) public {\r\n        require(auctions[_auctionId].active, \"Auction is not active\");\r\n\r\n        if (auctions[_auctionId].highestBidder == address(0)) {\r\n            // No bids were placed\r\n            auctions[_auctionId].active = false;\r\n            emit AuctionEnd(\r\n                _auctionId,\r\n                auctions[_auctionId].highestBidder,\r\n                auctions[_auctionId].highestBid\r\n            );\r\n            return;\r\n        }\r\n\r\n        \r\n        // Transfer the funds to the seller\r\n        pendingReturns[_auctionId][\r\n            ticketContract.getTicketOwner(auctions[_auctionId].ticketId)\r\n        ] += auctions[_auctionId].highestBid;\r\n\r\n\r\n        // Transfer the ticket to the winner\r\n        ticketContract.transferTicket(\r\n            auctions[_auctionId].ticketId,\r\n            auctions[_auctionId].highestBidder\r\n        );\r\n\r\n\r\n        // End the auction\r\n        auctions[_auctionId].active = false;\r\n        emit AuctionEnd(\r\n            _auctionId,\r\n            auctions[_auctionId].highestBidder,\r\n            auctions[_auctionId].highestBid\r\n        );\r\n    }\r\n\r\n    function getAuctionByTicketId(uint _ticketId) public view returns (bool) {\r\n        for (uint i = 1; i <= auctionCount; i++) {\r\n            if (auctions[i].ticketId == _ticketId && auctions[i].active) {\r\n                return true;\r\n            }\r\n        }\r\n        return false;\r\n    }\r\n\r\n    event BidPlaced(uint auctionId, address bidder, uint value);\r\n\r\n    function placeBid(\r\n        uint _auctionId\r\n    ) public payable isAuctionActive(_auctionId) isBidHighEnough(_auctionId) {\r\n        // Push the bid to the auction's bids array\r\n        auctionBids[_auctionId].push(Bid(msg.value, msg.sender));\r\n\r\n        if (auctions[_auctionId].highestBidder != address(0)) {\r\n            // Update the pending returns for the previous highest bidder\r\n            pendingReturns[_auctionId][\r\n                auctions[_auctionId].highestBidder\r\n            ] += auctions[_auctionId].highestBid;\r\n        }\r\n\r\n        // Update the highest bid and bidder\r\n        auctions[_auctionId].highestBid = msg.value;\r\n        auctions[_auctionId].highestBidder = msg.sender;\r\n\r\n        emit BidPlaced(_auctionId, msg.sender, msg.value);\r\n    }\r\n\r\n    function getBidsByAuctionId(\r\n        uint _auctionId\r\n    ) public view returns (uint[] memory, address[] memory) {\r\n        uint[] memory values = new uint[](auctionBids[_auctionId].length);\r\n        address[] memory bidders = new address[](\r\n            auctionBids[_auctionId].length\r\n        );\r\n\r\n        for (uint i = 0; i < auctionBids[_auctionId].length; i++) {\r\n            values[i] = auctionBids[_auctionId][i].value;\r\n            bidders[i] = auctionBids[_auctionId][i].bidder;\r\n        }\r\n\r\n        return (values, bidders);\r\n    }\r\n\r\n\r\n    function checkPendingReturns(uint _auctionId, address account) public view returns (bool) {\r\n        return pendingReturns[_auctionId][account] > 0;\r\n    }\r\n\r\n    function getTotalValuePendingReturns (address account) public view returns (uint) {\r\n        uint total = 0;\r\n        for (uint i = 1; i <= auctionCount; i++) {\r\n            if (!auctions[i].active){\r\n                total += pendingReturns[i][account];\r\n            }\r\n        }\r\n        return total;\r\n    }\r\n\r\n    event WithdrawAllReturns(uint auctionId, address account, uint amount);\r\n\r\n    function withdrawAllReturns(address payable account) public {\r\n        for (uint i = 1; i <= auctionCount; i++) {\r\n            if (!auctions[i].active && pendingReturns[i][account] > 0) {\r\n                uint amount = pendingReturns[i][account];\r\n                pendingReturns[i][account] = 0;\r\n    \r\n                account.transfer(amount);\r\n            }\r\n        }\r\n\r\n        emit WithdrawAllReturns(auctionCount, account, pendingReturns[auctionCount][account]);\r\n    }\r\n}\r\n",
  "sourcePath": "D:/Facultate/ProiectBlockchainTruffle/contracts/TicketAuction.sol",
  "compiler": {
    "name": "solc",
    "version": "0.5.0+commit.1d4f565a.Emscripten.clang"
  },
  "schemaVersion": "3.0.1",
  "updatedAt": "2024-05-18T18:23:46.997Z",
  "devdoc": {
    "methods": {}
  },
  "userdoc": {
    "methods": {}
  }
}