{
  "contractName": "Ticket",
  "abi": [
    {
      "constant": true,
      "inputs": [
        {
          "name": "",
          "type": "uint256"
        }
      ],
      "name": "tickets",
      "outputs": [
        {
          "name": "id",
          "type": "uint256"
        },
        {
          "name": "name",
          "type": "string"
        },
        {
          "name": "description",
          "type": "string"
        },
        {
          "name": "price",
          "type": "uint256"
        },
        {
          "name": "owner",
          "type": "address"
        },
        {
          "name": "forSale",
          "type": "bool"
        }
      ],
      "payable": false,
      "stateMutability": "view",
      "type": "function",
      "signature": "0x50b44712"
    },
    {
      "constant": true,
      "inputs": [],
      "name": "ticketCount",
      "outputs": [
        {
          "name": "",
          "type": "uint256"
        }
      ],
      "payable": false,
      "stateMutability": "view",
      "type": "function",
      "signature": "0xcfbd900f"
    },
    {
      "anonymous": false,
      "inputs": [
        {
          "indexed": false,
          "name": "id",
          "type": "uint256"
        },
        {
          "indexed": false,
          "name": "name",
          "type": "string"
        },
        {
          "indexed": false,
          "name": "description",
          "type": "string"
        },
        {
          "indexed": false,
          "name": "price",
          "type": "uint256"
        },
        {
          "indexed": false,
          "name": "owner",
          "type": "address"
        },
        {
          "indexed": false,
          "name": "forSale",
          "type": "bool"
        }
      ],
      "name": "TicketCreated",
      "type": "event",
      "signature": "0x7a930ff389b66bb8b8dcf10a6b04c8c90fca9c9a06c590c554d49fe91c36f4be"
    },
    {
      "anonymous": false,
      "inputs": [
        {
          "indexed": false,
          "name": "id",
          "type": "uint256"
        },
        {
          "indexed": false,
          "name": "price",
          "type": "uint256"
        },
        {
          "indexed": false,
          "name": "owner",
          "type": "address"
        }
      ],
      "name": "TicketPlaceOnSale",
      "type": "event",
      "signature": "0xdbc50af12f7a131d096f01fec5b945f2799cbc6a0caf5e7129720f9bfb0eec8c"
    },
    {
      "anonymous": false,
      "inputs": [
        {
          "indexed": false,
          "name": "id",
          "type": "uint256"
        },
        {
          "indexed": false,
          "name": "price",
          "type": "uint256"
        },
        {
          "indexed": false,
          "name": "owner",
          "type": "address"
        }
      ],
      "name": "TicketBought",
      "type": "event",
      "signature": "0xdfc495a9ab5027ebf451b0bde607c053b25fdebc892e8bd60c755d720bd51d1f"
    },
    {
      "constant": false,
      "inputs": [
        {
          "name": "_name",
          "type": "string"
        },
        {
          "name": "_description",
          "type": "string"
        }
      ],
      "name": "createTicket",
      "outputs": [],
      "payable": false,
      "stateMutability": "nonpayable",
      "type": "function",
      "signature": "0x942b223a"
    },
    {
      "constant": true,
      "inputs": [
        {
          "name": "_account",
          "type": "address"
        }
      ],
      "name": "getAccountTickets",
      "outputs": [
        {
          "name": "",
          "type": "uint256[]"
        }
      ],
      "payable": false,
      "stateMutability": "view",
      "type": "function",
      "signature": "0x239b8376"
    },
    {
      "constant": false,
      "inputs": [
        {
          "name": "_id",
          "type": "uint256"
        },
        {
          "name": "_price",
          "type": "uint256"
        }
      ],
      "name": "placeTicketOnSale",
      "outputs": [],
      "payable": false,
      "stateMutability": "nonpayable",
      "type": "function",
      "signature": "0x525e3dc6"
    },
    {
      "constant": false,
      "inputs": [
        {
          "name": "_id",
          "type": "uint256"
        }
      ],
      "name": "revokeTicketFromSale",
      "outputs": [],
      "payable": false,
      "stateMutability": "nonpayable",
      "type": "function",
      "signature": "0xc2b23a42"
    },
    {
      "constant": false,
      "inputs": [
        {
          "name": "_id",
          "type": "uint256"
        }
      ],
      "name": "buyTicket",
      "outputs": [],
      "payable": true,
      "stateMutability": "payable",
      "type": "function",
      "signature": "0x67dd74ca"
    }
  ],
  "bytecode": "0x60806040526000805534801561001457600080fd5b50610d5e806100246000396000f3fe6080604052600436106100825763ffffffff7c0100000000000000000000000000000000000000000000000000000000600035041663239b8376811461008757806350b447121461010a578063525e3dc61461024457806367dd74ca14610276578063942b223a14610293578063c2b23a42146103cd578063cfbd900f146103f7575b600080fd5b34801561009357600080fd5b506100ba600480360360208110156100aa57600080fd5b5035600160a060020a031661041e565b60408051602080825283518183015283519192839290830191858101910280838360005b838110156100f65781810151838201526020016100de565b505050509050019250505060405180910390f35b34801561011657600080fd5b506101346004803603602081101561012d57600080fd5b5035610527565b60405180878152602001806020018060200186815260200185600160a060020a0316600160a060020a0316815260200184151515158152602001838103835288818151815260200191508051906020019080838360005b838110156101a357818101518382015260200161018b565b50505050905090810190601f1680156101d05780820380516001836020036101000a031916815260200191505b50838103825287518152875160209182019189019080838360005b838110156102035781810151838201526020016101eb565b50505050905090810190601f1680156102305780820380516001836020036101000a031916815260200191505b509850505050505050505060405180910390f35b34801561025057600080fd5b506102746004803603604081101561026757600080fd5b5080359060200135610691565b005b6102746004803603602081101561028c57600080fd5b50356107b9565b34801561029f57600080fd5b50610274600480360360408110156102b657600080fd5b8101906020810181356401000000008111156102d157600080fd5b8201836020820111156102e357600080fd5b8035906020019184600183028401116401000000008311171561030557600080fd5b91908080601f016020809104026020016040519081016040528093929190818152602001838380828437600092019190915250929594936020810193503591505064010000000081111561035857600080fd5b82018360208201111561036a57600080fd5b8035906020019184600183028401116401000000008311171561038c57600080fd5b91908080601f016020809104026020016040519081016040528093929190818152602001838380828437600092019190915250929550610994945050505050565b3480156103d957600080fd5b50610274600480360360208110156103f057600080fd5b5035610bc4565b34801561040357600080fd5b5061040c610c91565b60408051918252519081900360200190f35b60608060005460405190808252806020026020018201604052801561044d578160200160208202803883390190505b509050600060015b60005481116104ab57600081815260016020526040902060040154600160a060020a03868116911614156104a35780838381518110151561049257fe5b602090810290910101526001909101905b600101610455565b506060816040519080825280602002602001820160405280156104d8578160200160208202803883390190505b50905060005b8281101561051e5783818151811015156104f457fe5b90602001906020020151828281518110151561050c57fe5b602090810290910101526001016104de565b50949350505050565b600160208181526000928352604092839020805481840180548651600296821615610100026000190190911695909504601f810185900485028601850190965285855290949193929091908301828280156105c35780601f10610598576101008083540402835291602001916105c3565b820191906000526020600020905b8154815290600101906020018083116105a657829003601f168201915b50505060028085018054604080516020601f60001961010060018716150201909416959095049283018590048502810185019091528181529596959450909250908301828280156106555780601f1061062a57610100808354040283529160200191610655565b820191906000526020600020905b81548152906001019060200180831161063857829003601f168201915b505050506003830154600490930154919291600160a060020a038116915074010000000000000000000000000000000000000000900460ff1686565b6000828152600160205260409020600401548290600160a060020a03163314610729576040805160e560020a62461bcd028152602060048201526024808201527f596f7520617265206e6f7420746865206f776e6572206f66207468697320746960448201527f636b657400000000000000000000000000000000000000000000000000000000606482015290519081900360840190fd5b60008381526001602090815260409182902060048101805474ff00000000000000000000000000000000000000001916740100000000000000000000000000000000000000001790556003018490558151858152908101849052338183015290517fdbc50af12f7a131d096f01fec5b945f2799cbc6a0caf5e7129720f9bfb0eec8c9181900360600190a1505050565b60008181526001602081905260409091206004015482917401000000000000000000000000000000000000000090910460ff16151514610843576040805160e560020a62461bcd02815260206004820152601660248201527f5469636b6574206973206e6f7420666f722073616c6500000000000000000000604482015290519081900360640190fd5b60008281526001602052604090206003015482903410156108ae576040805160e560020a62461bcd02815260206004820152601060248201527f4e6f7420656e6f7567682066756e647300000000000000000000000000000000604482015290519081900360640190fd5b600083815260016020526040808220600401549051600160a060020a03909116913480156108fc02929091818181858888f193505050501580156108f6573d6000803e3d6000fd5b5060008381526001602090815260408083206004810180543373ffffffffffffffffffffffffffffffffffffffff19909116811774ff00000000000000000000000000000000000000001916909155600390910193909355805186815234928101929092528181019290925290517fdfc495a9ab5027ebf451b0bde607c053b25fdebc892e8bd60c755d720bd51d1f916060908290030190a1505050565b6000805460019081018083556040805160c08101825282815260208082018881528284018890526060830187905233608084015260a0830187905293865284815291909420845181559151805192936109f593908501929190910190610c97565b5060408201518051610a11916002840191602090910190610c97565b5060608281015160038301556080808401516004909301805460a0958601511515740100000000000000000000000000000000000000000274ff000000000000000000000000000000000000000019600160a060020a0390961673ffffffffffffffffffffffffffffffffffffffff1990921691909117949094169390931790925560008054604080518281529384018390523394840185905294830182905260c0602080850182815289519286019290925288517f7a930ff389b66bb8b8dcf10a6b04c8c90fca9c9a06c590c554d49fe91c36f4be9793968a968a9695919486949193909284019160e0850191908a0190808383895b83811015610b20578181015183820152602001610b08565b50505050905090810190601f168015610b4d5780820380516001836020036101000a031916815260200191505b50838103825287518152875160209182019189019080838360005b83811015610b80578181015183820152602001610b68565b50505050905090810190601f168015610bad5780820380516001836020036101000a031916815260200191505b509850505050505050505060405180910390a15050565b6000818152600160205260409020600401548190600160a060020a03163314610c5c576040805160e560020a62461bcd028152602060048201526024808201527f596f7520617265206e6f7420746865206f776e6572206f66207468697320746960448201527f636b657400000000000000000000000000000000000000000000000000000000606482015290519081900360840190fd5b50600090815260016020526040812060048101805474ff00000000000000000000000000000000000000001916905560030155565b60005481565b828054600181600116156101000203166002900490600052602060002090601f016020900481019282601f10610cd857805160ff1916838001178555610d05565b82800160010185558215610d05579182015b82811115610d05578251825591602001919060010190610cea565b50610d11929150610d15565b5090565b610d2f91905b80821115610d115760008155600101610d1b565b9056fea165627a7a7230582078a1710a71166cd376520605bc01ac082f8aa5d10e9a8125ac6b570edef89c000029",
  "source": "pragma solidity ^0.5.0;\r\n\r\n// SPDX-License-Identifier: UNLICENSED\r\n\r\ncontract Ticket {\r\n    uint public ticketCount = 0;\r\n\r\n    struct TicketStruct {\r\n        uint id;\r\n        string name;\r\n        string description;\r\n        uint price;\r\n        address payable owner;\r\n        bool forSale;\r\n    }\r\n\r\n    mapping(uint => TicketStruct) public tickets;\r\n\r\n    event TicketCreated(\r\n        uint id,\r\n        string name,\r\n        string description,\r\n        uint price,\r\n        address payable owner,\r\n        bool forSale\r\n    );\r\n\r\n    event TicketPlaceOnSale(uint id, uint price, address payable owner);\r\n\r\n    event TicketBought(uint id, uint price, address payable owner);\r\n\r\n    function createTicket(\r\n        string memory _name,\r\n        string memory _description\r\n    ) public {\r\n        ticketCount++;\r\n        tickets[ticketCount] = TicketStruct(\r\n            ticketCount,\r\n            _name,\r\n            _description,\r\n            0,\r\n            msg.sender,\r\n            false\r\n        );\r\n        emit TicketCreated(\r\n            ticketCount,\r\n            _name,\r\n            _description,\r\n            0,\r\n            msg.sender,\r\n            false\r\n        );\r\n    }\r\n\r\n    function getAccountTickets(\r\n        address _account\r\n    ) public view returns (uint[] memory) {\r\n        uint[] memory tempResult = new uint[](ticketCount);\r\n        uint counter = 0;\r\n        for (uint i = 1; i <= ticketCount; i++) {\r\n            if (tickets[i].owner == _account) {\r\n                tempResult[counter] = i;\r\n                counter++;\r\n            }\r\n        }\r\n        uint[] memory result = new uint[](counter);\r\n        for (uint i = 0; i < counter; i++) {\r\n            result[i] = tempResult[i];\r\n        }\r\n        return result;\r\n    }\r\n\r\n    modifier onlyTicketOwner(uint _id) {\r\n        require(\r\n            tickets[_id].owner == msg.sender,\r\n            \"You are not the owner of this ticket\"\r\n        );\r\n        _;\r\n    }\r\n\r\n    function placeTicketOnSale(\r\n        uint _id,\r\n        uint _price\r\n    ) external onlyTicketOwner(_id) {\r\n        tickets[_id].forSale = true;\r\n        tickets[_id].price = _price;\r\n        emit TicketPlaceOnSale(_id, _price, msg.sender);\r\n    }\r\n\r\n    function revokeTicketFromSale(uint _id) external onlyTicketOwner(_id) {\r\n        tickets[_id].forSale = false;\r\n        tickets[_id].price = 0;\r\n    }\r\n\r\n    modifier isTicketForSale(uint _id) {\r\n        require(tickets[_id].forSale == true, \"Ticket is not for sale\");\r\n        _;\r\n    }\r\n\r\n    modifier hasEnoughFunds(uint _id) {\r\n        require(msg.value >= tickets[_id].price, \"Not enough funds\");\r\n        _;\r\n    }\r\n\r\n    function buyTicket(\r\n        uint _id\r\n    ) external payable isTicketForSale(_id) hasEnoughFunds(_id) {\r\n        tickets[_id].owner.transfer(msg.value);\r\n        tickets[_id].owner = msg.sender;\r\n        tickets[_id].forSale = false;\r\n        tickets[_id].price = 0;\r\n        emit TicketBought(_id, msg.value, msg.sender);\r\n    }\r\n}\r\n",
  "sourcePath": "D:/Facultate/ProiectBlockchainTruffle/contracts/Ticket.sol",
  "compiler": {
    "name": "solc",
    "version": "0.5.0+commit.1d4f565a.Emscripten.clang"
  },
  "schemaVersion": "3.0.1",
  "updatedAt": "2024-05-14T14:45:16.803Z",
  "devdoc": {
    "methods": {}
  },
  "userdoc": {
    "methods": {}
  }
}