{
  "contractName": "Ticket",
  "abi": [
    {
      "constant": true,
      "inputs": [
        {
          "name": "",
          "type": "uint256"
        }
      ],
      "name": "tickets",
      "outputs": [
        {
          "name": "id",
          "type": "uint256"
        },
        {
          "name": "name",
          "type": "string"
        },
        {
          "name": "description",
          "type": "string"
        },
        {
          "name": "price",
          "type": "uint256"
        },
        {
          "name": "owner",
          "type": "address"
        },
        {
          "name": "forSale",
          "type": "bool"
        }
      ],
      "payable": false,
      "stateMutability": "view",
      "type": "function",
      "signature": "0x50b44712"
    },
    {
      "constant": true,
      "inputs": [],
      "name": "ticketCount",
      "outputs": [
        {
          "name": "",
          "type": "uint256"
        }
      ],
      "payable": false,
      "stateMutability": "view",
      "type": "function",
      "signature": "0xcfbd900f"
    },
    {
      "anonymous": false,
      "inputs": [
        {
          "indexed": false,
          "name": "id",
          "type": "uint256"
        },
        {
          "indexed": false,
          "name": "name",
          "type": "string"
        },
        {
          "indexed": false,
          "name": "description",
          "type": "string"
        },
        {
          "indexed": false,
          "name": "price",
          "type": "uint256"
        },
        {
          "indexed": false,
          "name": "owner",
          "type": "address"
        },
        {
          "indexed": false,
          "name": "forSale",
          "type": "bool"
        }
      ],
      "name": "TicketCreated",
      "type": "event",
      "signature": "0x7a930ff389b66bb8b8dcf10a6b04c8c90fca9c9a06c590c554d49fe91c36f4be"
    },
    {
      "anonymous": false,
      "inputs": [
        {
          "indexed": false,
          "name": "id",
          "type": "uint256"
        },
        {
          "indexed": false,
          "name": "price",
          "type": "uint256"
        },
        {
          "indexed": false,
          "name": "owner",
          "type": "address"
        }
      ],
      "name": "TicketPlaceOnSale",
      "type": "event",
      "signature": "0xdbc50af12f7a131d096f01fec5b945f2799cbc6a0caf5e7129720f9bfb0eec8c"
    },
    {
      "anonymous": false,
      "inputs": [
        {
          "indexed": false,
          "name": "id",
          "type": "uint256"
        },
        {
          "indexed": false,
          "name": "price",
          "type": "uint256"
        },
        {
          "indexed": false,
          "name": "owner",
          "type": "address"
        }
      ],
      "name": "TicketBought",
      "type": "event",
      "signature": "0xdfc495a9ab5027ebf451b0bde607c053b25fdebc892e8bd60c755d720bd51d1f"
    },
    {
      "anonymous": false,
      "inputs": [
        {
          "indexed": false,
          "name": "id",
          "type": "uint256"
        },
        {
          "indexed": false,
          "name": "newOwner",
          "type": "address"
        }
      ],
      "name": "TicketTransferred",
      "type": "event",
      "signature": "0x05845a2db998bd30c506e1d3035706c71998c0752a28094fdf90c1a7588e6f58"
    },
    {
      "constant": false,
      "inputs": [
        {
          "name": "_name",
          "type": "string"
        },
        {
          "name": "_description",
          "type": "string"
        }
      ],
      "name": "createTicket",
      "outputs": [],
      "payable": false,
      "stateMutability": "nonpayable",
      "type": "function",
      "signature": "0x942b223a"
    },
    {
      "constant": true,
      "inputs": [
        {
          "name": "_account",
          "type": "address"
        }
      ],
      "name": "getAccountTickets",
      "outputs": [
        {
          "name": "",
          "type": "uint256[]"
        }
      ],
      "payable": false,
      "stateMutability": "view",
      "type": "function",
      "signature": "0x239b8376"
    },
    {
      "constant": true,
      "inputs": [
        {
          "name": "_id",
          "type": "uint256"
        }
      ],
      "name": "getisTicketForSale",
      "outputs": [
        {
          "name": "",
          "type": "bool"
        }
      ],
      "payable": false,
      "stateMutability": "view",
      "type": "function",
      "signature": "0x2a073a03"
    },
    {
      "constant": false,
      "inputs": [
        {
          "name": "_id",
          "type": "uint256"
        },
        {
          "name": "_price",
          "type": "uint256"
        }
      ],
      "name": "placeTicketOnSale",
      "outputs": [],
      "payable": false,
      "stateMutability": "nonpayable",
      "type": "function",
      "signature": "0x525e3dc6"
    },
    {
      "constant": false,
      "inputs": [
        {
          "name": "_id",
          "type": "uint256"
        }
      ],
      "name": "revokeTicketFromSale",
      "outputs": [],
      "payable": false,
      "stateMutability": "nonpayable",
      "type": "function",
      "signature": "0xc2b23a42"
    },
    {
      "constant": false,
      "inputs": [
        {
          "name": "_id",
          "type": "uint256"
        }
      ],
      "name": "buyTicket",
      "outputs": [],
      "payable": true,
      "stateMutability": "payable",
      "type": "function",
      "signature": "0x67dd74ca"
    },
    {
      "constant": true,
      "inputs": [
        {
          "name": "_id",
          "type": "uint256"
        }
      ],
      "name": "getTicket",
      "outputs": [
        {
          "name": "",
          "type": "string"
        },
        {
          "name": "",
          "type": "string"
        }
      ],
      "payable": false,
      "stateMutability": "view",
      "type": "function",
      "signature": "0x7dc379fa"
    },
    {
      "constant": true,
      "inputs": [
        {
          "name": "_id",
          "type": "uint256"
        }
      ],
      "name": "getTicketOwner",
      "outputs": [
        {
          "name": "",
          "type": "address"
        }
      ],
      "payable": false,
      "stateMutability": "view",
      "type": "function",
      "signature": "0xad093409"
    },
    {
      "constant": false,
      "inputs": [
        {
          "name": "_id",
          "type": "uint256"
        },
        {
          "name": "newOwner",
          "type": "address"
        }
      ],
      "name": "transferTicket",
      "outputs": [],
      "payable": false,
      "stateMutability": "nonpayable",
      "type": "function",
      "signature": "0x679ebf1a"
    }
  ],
  "bytecode": "0x60806040526000805534801561001457600080fd5b5061111e806100246000396000f3fe6080604052600436106100ae5763ffffffff7c0100000000000000000000000000000000000000000000000000000000600035041663239b837681146100b35780632a073a031461013657806350b4471214610174578063525e3dc6146102ae578063679ebf1a146102e057806367dd74ca146103195780637dc379fa14610336578063942b223a1461043e578063ad09340914610578578063c2b23a42146105be578063cfbd900f146105e8575b600080fd5b3480156100bf57600080fd5b506100e6600480360360208110156100d657600080fd5b5035600160a060020a031661060f565b60408051602080825283518183015283519192839290830191858101910280838360005b8381101561012257818101518382015260200161010a565b505050509050019250505060405180910390f35b34801561014257600080fd5b506101606004803603602081101561015957600080fd5b5035610718565b604080519115158252519081900360200190f35b34801561018057600080fd5b5061019e6004803603602081101561019757600080fd5b5035610737565b60405180878152602001806020018060200186815260200185600160a060020a0316600160a060020a0316815260200184151515158152602001838103835288818151815260200191508051906020019080838360005b8381101561020d5781810151838201526020016101f5565b50505050905090810190601f16801561023a5780820380516001836020036101000a031916815260200191505b50838103825287518152875160209182019189019080838360005b8381101561026d578181015183820152602001610255565b50505050905090810190601f16801561029a5780820380516001836020036101000a031916815260200191505b509850505050505050505060405180910390f35b3480156102ba57600080fd5b506102de600480360360408110156102d157600080fd5b5080359060200135610890565b005b3480156102ec57600080fd5b506102de6004803603604081101561030357600080fd5b5080359060200135600160a060020a03166109a9565b6102de6004803603602081101561032f57600080fd5b5035610a21565b34801561034257600080fd5b506103606004803603602081101561035957600080fd5b5035610beb565b604051808060200180602001838103835285818151815260200191508051906020019080838360005b838110156103a1578181015183820152602001610389565b50505050905090810190601f1680156103ce5780820380516001836020036101000a031916815260200191505b50838103825284518152845160209182019186019080838360005b838110156104015781810151838201526020016103e9565b50505050905090810190601f16801561042e5780820380516001836020036101000a031916815260200191505b5094505050505060405180910390f35b34801561044a57600080fd5b506102de6004803603604081101561046157600080fd5b81019060208101813564010000000081111561047c57600080fd5b82018360208201111561048e57600080fd5b803590602001918460018302840111640100000000831117156104b057600080fd5b91908080601f016020809104026020016040519081016040528093929190818152602001838380828437600092019190915250929594936020810193503591505064010000000081111561050357600080fd5b82018360208201111561051557600080fd5b8035906020019184600183028401116401000000008311171561053757600080fd5b91908080601f016020809104026020016040519081016040528093929190818152602001838380828437600092019190915250929550610d2b945050505050565b34801561058457600080fd5b506105a26004803603602081101561059b57600080fd5b5035610f4a565b60408051600160a060020a039092168252519081900360200190f35b3480156105ca57600080fd5b506102de600480360360208110156105e157600080fd5b5035610f68565b3480156105f457600080fd5b506105fd61103c565b60408051918252519081900360200190f35b60608060005460405190808252806020026020018201604052801561063e578160200160208202803883390190505b509050600060015b600054811161069c57600081815260016020526040902060040154600160a060020a03868116911614156106945780838381518110151561068357fe5b602090810290910101526001909101905b600101610646565b506060816040519080825280602002602001820160405280156106c9578160200160208202803883390190505b50905060005b8281101561070f5783818151811015156106e557fe5b9060200190602002015182828151811015156106fd57fe5b602090810290910101526001016106cf565b50949350505050565b60009081526001602052604090206004015460a060020a900460ff1690565b600160208181526000928352604092839020805481840180548651600296821615610100026000190190911695909504601f810185900485028601850190965285855290949193929091908301828280156107d35780601f106107a8576101008083540402835291602001916107d3565b820191906000526020600020905b8154815290600101906020018083116107b657829003601f168201915b50505060028085018054604080516020601f60001961010060018716150201909416959095049283018590048502810185019091528181529596959450909250908301828280156108655780601f1061083a57610100808354040283529160200191610865565b820191906000526020600020905b81548152906001019060200180831161084857829003601f168201915b505050506003830154600490930154919291600160a060020a038116915060a060020a900460ff1686565b6000828152600160205260409020600401548290600160a060020a03163314610928576040805160e560020a62461bcd028152602060048201526024808201527f596f7520617265206e6f7420746865206f776e6572206f66207468697320746960448201527f636b657400000000000000000000000000000000000000000000000000000000606482015290519081900360840190fd5b6000838152600160205260409020600401805474ff0000000000000000000000000000000000000000191660a060020a1790556109658383611042565b6040805184815260208101849052338183015290517fdbc50af12f7a131d096f01fec5b945f2799cbc6a0caf5e7129720f9bfb0eec8c9181900360600190a1505050565b600082815260016020908152604091829020600401805473ffffffffffffffffffffffffffffffffffffffff1916600160a060020a03851690811790915582518581529182015281517f05845a2db998bd30c506e1d3035706c71998c0752a28094fdf90c1a7588e6f58929181900390910190a15050565b600081815260016020819052604090912060040154829160a060020a90910460ff16151514610a9a576040805160e560020a62461bcd02815260206004820152601660248201527f5469636b6574206973206e6f7420666f722073616c6500000000000000000000604482015290519081900360640190fd5b6000828152600160205260409020600301548290341015610b05576040805160e560020a62461bcd02815260206004820152601060248201527f4e6f7420656e6f7567682066756e647300000000000000000000000000000000604482015290519081900360640190fd5b600083815260016020526040808220600401549051600160a060020a03909116913480156108fc02929091818181858888f19350505050158015610b4d573d6000803e3d6000fd5b5060008381526001602090815260408083206004810180543373ffffffffffffffffffffffffffffffffffffffff19909116811774ff00000000000000000000000000000000000000001916909155600390910193909355805186815234928101929092528181019290925290517fdfc495a9ab5027ebf451b0bde607c053b25fdebc892e8bd60c755d720bd51d1f916060908290030190a1505050565b600081815260016020818152604092839020808301805485516002958216156101000260001901909116859004601f81018590048502820185019096528581526060958695929492909301929091849190830182828015610c8d5780601f10610c6257610100808354040283529160200191610c8d565b820191906000526020600020905b815481529060010190602001808311610c7057829003601f168201915b5050845460408051602060026001851615610100026000190190941693909304601f810184900484028201840190925281815295975086945092508401905082828015610d1b5780601f10610cf057610100808354040283529160200191610d1b565b820191906000526020600020905b815481529060010190602001808311610cfe57829003601f168201915b5050505050905091509150915091565b6000805460019081018083556040805160c08101825282815260208082018881528284018890526060830187905233608084015260a083018790529386528481529190942084518155915180519293610d8c93908501929190910190611057565b5060408201518051610da8916002840191602090910190611057565b5060608281015160038301556080808401516004909301805460a095860151151560a060020a0274ff000000000000000000000000000000000000000019600160a060020a0390961673ffffffffffffffffffffffffffffffffffffffff1990921691909117949094169390931790925560008054604080518281529384018390523394840185905294830182905260c0602080850182815289519286019290925288517f7a930ff389b66bb8b8dcf10a6b04c8c90fca9c9a06c590c554d49fe91c36f4be9793968a968a9695919486949193909284019160e0850191908a0190808383895b83811015610ea6578181015183820152602001610e8e565b50505050905090810190601f168015610ed35780820380516001836020036101000a031916815260200191505b50838103825287518152875160209182019189019080838360005b83811015610f06578181015183820152602001610eee565b50505050905090810190601f168015610f335780820380516001836020036101000a031916815260200191505b509850505050505050505060405180910390a15050565b600090815260016020526040902060040154600160a060020a031690565b6000818152600160205260409020600401548190600160a060020a03163314611000576040805160e560020a62461bcd028152602060048201526024808201527f596f7520617265206e6f7420746865206f776e6572206f66207468697320746960448201527f636b657400000000000000000000000000000000000000000000000000000000606482015290519081900360840190fd5b6000828152600160205260408120600401805474ff000000000000000000000000000000000000000019169055611038908390611042565b5050565b60005481565b60009182526001602052604090912060030155565b828054600181600116156101000203166002900490600052602060002090601f016020900481019282601f1061109857805160ff19168380011785556110c5565b828001600101855582156110c5579182015b828111156110c55782518255916020019190600101906110aa565b506110d19291506110d5565b5090565b6110ef91905b808211156110d157600081556001016110db565b9056fea165627a7a723058206f2ff94deae48fd4b5190c32fba7aaafb9943c7594d2c45683e23fd8cfe0589a0029",
  "source": "pragma solidity ^0.5.0;\r\n\r\n// SPDX-License-Identifier: UNLICENSED\r\n\r\ncontract Ticket {\r\n    uint public ticketCount = 0;\r\n\r\n    struct TicketStruct {\r\n        uint id;\r\n        string name;\r\n        string description;\r\n        uint price;\r\n        address payable owner;\r\n        bool forSale;\r\n    }\r\n\r\n    mapping(uint => TicketStruct) public tickets;\r\n\r\n    event TicketCreated(\r\n        uint id,\r\n        string name,\r\n        string description,\r\n        uint price,\r\n        address payable owner,\r\n        bool forSale\r\n    );\r\n\r\n    event TicketPlaceOnSale(uint id, uint price, address payable owner);\r\n\r\n    event TicketBought(uint id, uint price, address payable owner);\r\n\r\n    function createTicket(\r\n        string memory _name,\r\n        string memory _description\r\n    ) public {\r\n        ticketCount++;\r\n        tickets[ticketCount] = TicketStruct(\r\n            ticketCount,\r\n            _name,\r\n            _description,\r\n            0,\r\n            msg.sender,\r\n            false\r\n        );\r\n        emit TicketCreated(\r\n            ticketCount,\r\n            _name,\r\n            _description,\r\n            0,\r\n            msg.sender,\r\n            false\r\n        );\r\n    }\r\n\r\n    function getAccountTickets(\r\n        address _account\r\n    ) public view returns (uint[] memory) {\r\n        uint[] memory tempResult = new uint[](ticketCount);\r\n        uint counter = 0;\r\n        for (uint i = 1; i <= ticketCount; i++) {\r\n            if (tickets[i].owner == _account) {\r\n                tempResult[counter] = i;\r\n                counter++;\r\n            }\r\n        }\r\n        uint[] memory result = new uint[](counter);\r\n        for (uint i = 0; i < counter; i++) {\r\n            result[i] = tempResult[i];\r\n        }\r\n        return result;\r\n    }\r\n\r\n    modifier onlyTicketOwner(uint _id) {\r\n        require(\r\n            tickets[_id].owner == msg.sender,\r\n            \"You are not the owner of this ticket\"\r\n        );\r\n        _;\r\n    }\r\n\r\n    function updateTicketPrice(uint _id, uint _newPrice) private {\r\n        tickets[_id].price = _newPrice;\r\n    }\r\n\r\n    function getisTicketForSale(uint _id) public view returns (bool) {\r\n        return tickets[_id].forSale;\r\n    }\r\n\r\n    function placeTicketOnSale(\r\n        uint _id,\r\n        uint _price\r\n    ) external onlyTicketOwner(_id) {\r\n        tickets[_id].forSale = true;\r\n        updateTicketPrice(_id, _price);\r\n        emit TicketPlaceOnSale(_id, _price, msg.sender);\r\n    }\r\n\r\n    function revokeTicketFromSale(uint _id) external onlyTicketOwner(_id) {\r\n        tickets[_id].forSale = false;\r\n        updateTicketPrice(_id, 0);\r\n    }\r\n\r\n    modifier isTicketForSale(uint _id) {\r\n        require(tickets[_id].forSale == true, \"Ticket is not for sale\");\r\n        _;\r\n    }\r\n\r\n    modifier hasEnoughFunds(uint _id) {\r\n        require(msg.value >= tickets[_id].price, \"Not enough funds\");\r\n        _;\r\n    }\r\n\r\n    function buyTicket(\r\n        uint _id\r\n    ) external payable isTicketForSale(_id) hasEnoughFunds(_id) {\r\n        tickets[_id].owner.transfer(msg.value);\r\n        tickets[_id].owner = msg.sender;\r\n        tickets[_id].forSale = false;\r\n        tickets[_id].price = 0;\r\n        emit TicketBought(_id, msg.value, msg.sender);\r\n    }\r\n\r\n    function getTicket(uint _id) public view returns (string memory, string memory) {\r\n            return (tickets[_id].name, tickets[_id].description);\r\n\r\n    }\r\n\r\n    function getTicketOwner(uint _id) public view returns (address) {\r\n        return tickets[_id].owner;\r\n    }\r\n\r\n    event TicketTransferred(uint id, address payable newOwner);\r\n\r\n    function transferTicket(uint _id, address payable newOwner) public {\r\n        tickets[_id].owner = newOwner;\r\n        emit TicketTransferred(_id, newOwner);\r\n    }\r\n}\r\n",
  "sourcePath": "D:\\Facultate\\ProiectBlockchainTruffle\\contracts\\Ticket.sol",
  "compiler": {
    "name": "solc",
    "version": "0.5.0+commit.1d4f565a.Emscripten.clang"
  },
  "schemaVersion": "3.0.1",
  "updatedAt": "2024-05-14T21:49:53.061Z",
  "devdoc": {
    "methods": {}
  },
  "userdoc": {
    "methods": {}
  }
}