{
  "contractName": "TicketAuction",
  "abi": [
    {
      "constant": true,
      "inputs": [
        {
          "name": "",
          "type": "address"
        }
      ],
      "name": "pendingReturns",
      "outputs": [
        {
          "name": "",
          "type": "uint256"
        }
      ],
      "payable": false,
      "stateMutability": "view",
      "type": "function",
      "signature": "0x26b387bb"
    },
    {
      "constant": true,
      "inputs": [],
      "name": "auctionCount",
      "outputs": [
        {
          "name": "",
          "type": "uint256"
        }
      ],
      "payable": false,
      "stateMutability": "view",
      "type": "function",
      "signature": "0x2ad71573"
    },
    {
      "constant": false,
      "inputs": [],
      "name": "withdraw",
      "outputs": [
        {
          "name": "",
          "type": "bool"
        }
      ],
      "payable": false,
      "stateMutability": "nonpayable",
      "type": "function",
      "signature": "0x3ccfd60b"
    },
    {
      "constant": true,
      "inputs": [
        {
          "name": "",
          "type": "uint256"
        }
      ],
      "name": "auctions",
      "outputs": [
        {
          "name": "id",
          "type": "uint256"
        },
        {
          "name": "startPrice",
          "type": "uint256"
        },
        {
          "name": "highestBid",
          "type": "uint256"
        },
        {
          "name": "highestBidder",
          "type": "address"
        },
        {
          "name": "ticketId",
          "type": "uint256"
        },
        {
          "name": "active",
          "type": "bool"
        },
        {
          "name": "deadline",
          "type": "uint256"
        }
      ],
      "payable": false,
      "stateMutability": "view",
      "type": "function",
      "signature": "0x571a26a0"
    },
    {
      "constant": true,
      "inputs": [],
      "name": "ticketContract",
      "outputs": [
        {
          "name": "",
          "type": "address"
        }
      ],
      "payable": false,
      "stateMutability": "view",
      "type": "function",
      "signature": "0x58a86e1d"
    },
    {
      "inputs": [
        {
          "name": "_ticketContractAddress",
          "type": "address"
        }
      ],
      "payable": false,
      "stateMutability": "nonpayable",
      "type": "constructor",
      "signature": "constructor"
    },
    {
      "anonymous": false,
      "inputs": [
        {
          "indexed": false,
          "name": "auctionId",
          "type": "uint256"
        },
        {
          "indexed": false,
          "name": "ticketId",
          "type": "uint256"
        },
        {
          "indexed": false,
          "name": "startPrice",
          "type": "uint256"
        },
        {
          "indexed": false,
          "name": "duration",
          "type": "uint256"
        }
      ],
      "name": "AuctionStarted",
      "type": "event",
      "signature": "0xa832766a05f1bd0298b0268308621777cfe1e4eea23afe7c06beea79bc6ddd2d"
    },
    {
      "anonymous": false,
      "inputs": [
        {
          "indexed": false,
          "name": "ticketId",
          "type": "uint256"
        },
        {
          "indexed": false,
          "name": "bidder",
          "type": "address"
        },
        {
          "indexed": false,
          "name": "amount",
          "type": "uint256"
        }
      ],
      "name": "BidPlaced",
      "type": "event",
      "signature": "0x0e54eff26401bf69b81b26f60bd85ef47f5d85275c1d268d84f68d6897431c47"
    },
    {
      "anonymous": false,
      "inputs": [
        {
          "indexed": false,
          "name": "ticketId",
          "type": "uint256"
        },
        {
          "indexed": false,
          "name": "winner",
          "type": "address"
        },
        {
          "indexed": false,
          "name": "amount",
          "type": "uint256"
        }
      ],
      "name": "AuctionEnded",
      "type": "event",
      "signature": "0xd2aa34a4fdbbc6dff6a3e56f46e0f3ae2a31d7785ff3487aa5c95c642acea501"
    },
    {
      "constant": false,
      "inputs": [
        {
          "name": "_ticketId",
          "type": "uint256"
        },
        {
          "name": "_startPrice",
          "type": "uint256"
        },
        {
          "name": "_duration",
          "type": "uint256"
        }
      ],
      "name": "startAuction",
      "outputs": [],
      "payable": false,
      "stateMutability": "nonpayable",
      "type": "function",
      "signature": "0x91e078bb"
    },
    {
      "constant": false,
      "inputs": [
        {
          "name": "_ticketId",
          "type": "uint256"
        }
      ],
      "name": "bid",
      "outputs": [],
      "payable": true,
      "stateMutability": "payable",
      "type": "function",
      "signature": "0x454a2ab3"
    },
    {
      "constant": false,
      "inputs": [
        {
          "name": "_ticketId",
          "type": "uint256"
        }
      ],
      "name": "endAuction",
      "outputs": [],
      "payable": false,
      "stateMutability": "nonpayable",
      "type": "function",
      "signature": "0xb9a2de3a"
    },
    {
      "constant": true,
      "inputs": [
        {
          "name": "_ticketId",
          "type": "uint256"
        }
      ],
      "name": "getAuctionByTicketId",
      "outputs": [
        {
          "name": "",
          "type": "bool"
        }
      ],
      "payable": false,
      "stateMutability": "view",
      "type": "function",
      "signature": "0x1cea825e"
    }
  ],
  "bytecode": "0x6080604052600060025534801561001557600080fd5b5060405160208061094b8339810180604052602081101561003557600080fd5b505160018054600160a060020a031916600160a060020a039092169190911790556108e6806100656000396000f3fe6080604052600436106100985763ffffffff7c01000000000000000000000000000000000000000000000000000000006000350416631cea825e811461009d57806326b387bb146100db5780632ad71573146101205780633ccfd60b14610135578063454a2ab31461014a578063571a26a01461016957806358a86e1d146101d557806391e078bb14610206578063b9a2de3a1461023c575b600080fd5b3480156100a957600080fd5b506100c7600480360360208110156100c057600080fd5b5035610266565b604080519115158252519081900360200190f35b3480156100e757600080fd5b5061010e600480360360208110156100fe57600080fd5b5035600160a060020a03166102c7565b60408051918252519081900360200190f35b34801561012c57600080fd5b5061010e6102d9565b34801561014157600080fd5b506100c76102df565b6101676004803603602081101561016057600080fd5b503561034a565b005b34801561017557600080fd5b506101936004803603602081101561018c57600080fd5b5035610520565b60408051978852602088019690965286860194909452600160a060020a0390921660608601526080850152151560a084015260c0830152519081900360e00190f35b3480156101e157600080fd5b506101ea61056e565b60408051600160a060020a039092168252519081900360200190f35b34801561021257600080fd5b506101676004803603606081101561022957600080fd5b508035906020810135906040013561057d565b34801561024857600080fd5b506101676004803603602081101561025f57600080fd5b5035610683565b600060015b60025481116102bc57600081815260036020526040902060040154831480156102a5575060008181526003602052604090206005015460ff165b156102b45760019150506102c2565b60010161026b565b50600090505b919050565b60006020819052908152604090205481565b60025481565b336000908152602081905260408120548181111561034157336000818152602081905260408082208290555183156108fc0291849190818181858888f19350505050151561034157336000908152602081905260408120919091559050610347565b60019150505b90565b600081815260036020526040902060050154819060ff1615156103ce57604080517f08c379a000000000000000000000000000000000000000000000000000000000815260206004820152601560248201527f41756374696f6e206973206e6f74206163746976650000000000000000000000604482015290519081900360640190fd5b6000828152600360205260409020600201548290341161044f57604080517f08c379a000000000000000000000000000000000000000000000000000000000815260206004820152601660248201527f426964206973206e6f74206869676820656e6f75676800000000000000000000604482015290519081900360640190fd5b60008381526003602081905260409091200154600160a060020a0316156104a35760008381526003602081815260408084206002810154930154600160a060020a0316845290839052909120805490910190555b60008381526003602081815260409283902034600282018190559201805473ffffffffffffffffffffffffffffffffffffffff1916339081179091558351878152918201528083019190915290517f0e54eff26401bf69b81b26f60bd85ef47f5d85275c1d268d84f68d6897431c479181900360600190a1505050565b60036020819052600091825260409091208054600182015460028301549383015460048401546005850154600690950154939592949293600160a060020a0390921692909160ff9091169087565b600154600160a060020a031681565b6002805460019081018083556040805160e08101825282815260208082018881528284018981526000606080860182815260808088018f815260a089018c815260c08a018f81529b86526003808a52958b902099518a5596519b89019b909b559351878c015551918601805473ffffffffffffffffffffffffffffffffffffffff1916600160a060020a039093169290921790915596516004850155905160058401805460ff191691151591909117905593516006909201919091559354815190815293840187905283810186905291830184905290517fa832766a05f1bd0298b0268308621777cfe1e4eea23afe7c06beea79bc6ddd2d9281900390910190a1505050565b60015b60025481116108b5576000818152600360205260409020600401548214156108ad5760008181526003602081905260409091200154600160a060020a031615156106e8576000908152600360205260409020600501805460ff191690556108b7565b60015460008281526003602081905260408083209091015481517f679ebf1a00000000000000000000000000000000000000000000000000000000815260048101879052600160a060020a039182166024820152915193169263679ebf1a9260448084019391929182900301818387803b15801561076557600080fd5b505af1158015610779573d6000803e3d6000fd5b50505060008281526003602090815260408083206002015460015482517fad0934090000000000000000000000000000000000000000000000000000000081526004810189905292519195508493600160a060020a039091169263ad0934099260248083019392829003018186803b1580156107f457600080fd5b505afa158015610808573d6000803e3d6000fd5b505050506040513d602081101561081e57600080fd5b5051600160a060020a03908116825260208281019390935260409182016000908120805490950190945584845260038084529382902060058101805460ff19169055938401546002909401548251878152949091169284019290925282810191909152517fd2aa34a4fdbbc6dff6a3e56f46e0f3ae2a31d7785ff3487aa5c95c642acea5019181900360600190a15b600101610686565b505b5056fea165627a7a72305820eed9dcbbffc02066993b75ef64c7e8b0342762b09673f84e5e7fb4b109c6d8000029",
  "source": "pragma solidity ^0.5.0;\r\n\r\nimport \"./Ticket.sol\";\r\nimport \"./Withdrawable.sol\";\r\n\r\ncontract TicketAuction is Withdrawable {\r\n    Ticket public ticketContract;\r\n\r\n    uint public auctionCount = 0;\r\n\r\n    // Auction details\r\n    struct Auction {\r\n        uint id;\r\n        uint startPrice;\r\n        uint highestBid;\r\n        address payable highestBidder;\r\n        uint ticketId;\r\n        bool active;\r\n        uint deadline; // Deadline as a UNIX timestamp\r\n    }\r\n\r\n    mapping(uint => Auction) public auctions;\r\n\r\n    constructor(address _ticketContractAddress) public {\r\n        ticketContract = Ticket(_ticketContractAddress);\r\n    }\r\n\r\n    modifier isAuctionActive(uint _id) {\r\n        require(auctions[_id].active, \"Auction is not active\");\r\n        _;\r\n    }\r\n\r\n    modifier isBidHighEnough(uint _id) {\r\n        require(msg.value > auctions[_id].highestBid, \"Bid is not high enough\");\r\n        _;\r\n    }\r\n\r\n    event AuctionStarted(\r\n        uint auctionId,\r\n        uint ticketId,\r\n        uint startPrice,\r\n        uint duration\r\n    );\r\n\r\n    function startAuction(\r\n        uint _ticketId,\r\n        uint _startPrice,\r\n        uint _duration\r\n    ) public {\r\n        // Start the auction\r\n        auctionCount++;\r\n        auctions[auctionCount] = Auction(\r\n            auctionCount,\r\n            _startPrice,\r\n            _startPrice, // Highest bid is the start price\r\n            address(0),\r\n            _ticketId,\r\n            true,\r\n            _duration\r\n        );\r\n        emit AuctionStarted(auctionCount, _ticketId, _startPrice, _duration);\r\n    }\r\n\r\n    event BidPlaced(uint ticketId, address bidder, uint amount);\r\n\r\n    event AuctionEnded(uint ticketId, address winner, uint amount);\r\n\r\n    function bid(\r\n        uint _ticketId\r\n    )\r\n        public\r\n        payable\r\n        isAuctionActive(_ticketId)\r\n        isBidHighEnough(_ticketId)\r\n    {\r\n        // Refund the previous highest bidder\r\n        if (auctions[_ticketId].highestBidder != address(0)) {\r\n            pendingReturns[auctions[_ticketId].highestBidder] += auctions[\r\n                _ticketId\r\n            ].highestBid;\r\n        }\r\n\r\n        // Update the highest bid\r\n        auctions[_ticketId].highestBid = msg.value;\r\n        auctions[_ticketId].highestBidder = msg.sender;\r\n        emit BidPlaced(_ticketId, msg.sender, msg.value);\r\n    }\r\n\r\n    function endAuction(uint _ticketId) public {\r\n        for (uint i = 1; i <= auctionCount; i++) {\r\n            if (auctions[i].ticketId == _ticketId) {\r\n                if (auctions[i].highestBidder == address(0)) {\r\n                    // No bids were placed\r\n                    auctions[i].active = false;\r\n                    return;\r\n                }\r\n                // Transfer the ticket to the winner\r\n                ticketContract.transferTicket(\r\n                    _ticketId,\r\n                    auctions[i].highestBidder\r\n                );\r\n                // Transfer the funds to the seller\r\n                pendingReturns[\r\n                    ticketContract.getTicketOwner(_ticketId)\r\n                ] += auctions[i].highestBid;\r\n                // End the auction\r\n                auctions[i].active = false;\r\n                emit AuctionEnded(\r\n                    _ticketId,\r\n                    auctions[i].highestBidder,\r\n                    auctions[i].highestBid\r\n                );\r\n            }\r\n        }\r\n    }\r\n\r\n    function getAuctionByTicketId(uint _ticketId) public view returns (bool) {\r\n        for (uint i = 1; i <= auctionCount; i++) {\r\n            if (auctions[i].ticketId == _ticketId && auctions[i].active) {\r\n                return true;\r\n            }\r\n        }\r\n        return false;\r\n    }\r\n}\r\n",
  "sourcePath": "D:/Facultate/ProiectBlockchainTruffle/contracts/TicketAuction.sol",
  "compiler": {
    "name": "solc",
    "version": "0.5.0+commit.1d4f565a.Emscripten.clang"
  },
  "schemaVersion": "3.0.1",
  "updatedAt": "2024-05-14T21:17:45.989Z",
  "devdoc": {
    "methods": {}
  },
  "userdoc": {
    "methods": {}
  }
}