{
  "contractName": "Ticket",
  "abi": [
    {
      "constant": true,
      "inputs": [
        {
          "name": "",
          "type": "uint256"
        }
      ],
      "name": "tickets",
      "outputs": [
        {
          "name": "id",
          "type": "uint256"
        },
        {
          "name": "name",
          "type": "string"
        },
        {
          "name": "description",
          "type": "string"
        },
        {
          "name": "price",
          "type": "uint256"
        },
        {
          "name": "owner",
          "type": "address"
        },
        {
          "name": "purchased",
          "type": "bool"
        }
      ],
      "payable": false,
      "stateMutability": "view",
      "type": "function",
      "signature": "0x50b44712"
    },
    {
      "constant": true,
      "inputs": [],
      "name": "ticketCount",
      "outputs": [
        {
          "name": "",
          "type": "uint256"
        }
      ],
      "payable": false,
      "stateMutability": "view",
      "type": "function",
      "signature": "0xcfbd900f"
    },
    {
      "inputs": [],
      "payable": false,
      "stateMutability": "nonpayable",
      "type": "constructor",
      "signature": "constructor"
    },
    {
      "constant": false,
      "inputs": [
        {
          "name": "_name",
          "type": "string"
        },
        {
          "name": "_description",
          "type": "string"
        },
        {
          "name": "_price",
          "type": "uint256"
        }
      ],
      "name": "createTicket",
      "outputs": [],
      "payable": false,
      "stateMutability": "nonpayable",
      "type": "function",
      "signature": "0x1af4d702"
    }
  ],
  "bytecode": "0x60806040526000805534801561001457600080fd5b5061009a6040805190810160405280600881526020017f436f6c64706c61790000000000000000000000000000000000000000000000008152506040805190810160405280601781526020017f436f6e63657274204172656e61204e6174696f6e616c61000000000000000000815250600a61009f640100000000026401000000009004565b610220565b6000805460019081018083556040805160c08101825282815260208082018981528284018990526060830188905233608084015260a08301879052938652848152919094208451815591518051929361010093908501929190910190610185565b506040820151805161011c916002840191602090910190610185565b506060820151600382015560808201516004909101805460a0909301511515740100000000000000000000000000000000000000000260a060020a60ff0219600160a060020a03909316600160a060020a03199094169390931791909116919091179055505050565b828054600181600116156101000203166002900490600052602060002090601f016020900481019282601f106101c657805160ff19168380011785556101f3565b828001600101855582156101f3579182015b828111156101f35782518255916020019190600101906101d8565b506101ff929150610203565b5090565b61021d91905b808211156101ff5760008155600101610209565b90565b6106668061022f6000396000f3fe6080604052600436106100565763ffffffff7c01000000000000000000000000000000000000000000000000000000006000350416631af4d702811461005b57806350b4471214610199578063cfbd900f146102ed575b600080fd5b34801561006757600080fd5b506101976004803603606081101561007e57600080fd5b81019060208101813564010000000081111561009957600080fd5b8201836020820111156100ab57600080fd5b803590602001918460018302840111640100000000831117156100cd57600080fd5b91908080601f016020809104026020016040519081016040528093929190818152602001838380828437600092019190915250929594936020810193503591505064010000000081111561012057600080fd5b82018360208201111561013257600080fd5b8035906020019184600183028401116401000000008311171561015457600080fd5b91908080601f0160208091040260200160405190810160405280939291908181526020018383808284376000920191909152509295505091359250610314915050565b005b3480156101a557600080fd5b506101c3600480360360208110156101bc57600080fd5b5035610422565b6040518087815260200180602001806020018681526020018573ffffffffffffffffffffffffffffffffffffffff1673ffffffffffffffffffffffffffffffffffffffff16815260200184151515158152602001838103835288818151815260200191508051906020019080838360005b8381101561024c578181015183820152602001610234565b50505050905090810190601f1680156102795780820380516001836020036101000a031916815260200191505b50838103825287518152875160209182019189019080838360005b838110156102ac578181015183820152602001610294565b50505050905090810190601f1680156102d95780820380516001836020036101000a031916815260200191505b509850505050505050505060405180910390f35b3480156102f957600080fd5b50610302610599565b60408051918252519081900360200190f35b6000805460019081018083556040805160c08101825282815260208082018981528284018990526060830188905233608084015260a0830187905293865284815291909420845181559151805192936103759390850192919091019061059f565b506040820151805161039191600284019160209091019061059f565b506060820151600382015560808201516004909101805460a0909301511515740100000000000000000000000000000000000000000274ff00000000000000000000000000000000000000001973ffffffffffffffffffffffffffffffffffffffff90931673ffffffffffffffffffffffffffffffffffffffff199094169390931791909116919091179055505050565b600160208181526000928352604092839020805481840180548651600296821615610100026000190190911695909504601f810185900485028601850190965285855290949193929091908301828280156104be5780601f10610493576101008083540402835291602001916104be565b820191906000526020600020905b8154815290600101906020018083116104a157829003601f168201915b50505060028085018054604080516020601f60001961010060018716150201909416959095049283018590048502810185019091528181529596959450909250908301828280156105505780601f1061052557610100808354040283529160200191610550565b820191906000526020600020905b81548152906001019060200180831161053357829003601f168201915b50505050600383015460049093015491929173ffffffffffffffffffffffffffffffffffffffff8116915074010000000000000000000000000000000000000000900460ff1686565b60005481565b828054600181600116156101000203166002900490600052602060002090601f016020900481019282601f106105e057805160ff191683800117855561060d565b8280016001018555821561060d579182015b8281111561060d5782518255916020019190600101906105f2565b5061061992915061061d565b5090565b61063791905b808211156106195760008155600101610623565b9056fea165627a7a72305820d82cf27a035a66c60fe291883557a759a609f8f4879cf52b1c80a2a59e07f5f90029",
  "source": "pragma solidity ^0.5.0;\r\n\r\n// SPDX-License-Identifier: UNLICENSED\r\n\r\n\r\ncontract Ticket{\r\n    uint public ticketCount = 0;\r\n\r\n    struct TicketStruct{\r\n        uint id;\r\n        string name;\r\n        string description;\r\n        uint price;\r\n        address payable owner;\r\n        bool purchased;\r\n    }\r\n\r\n    mapping(uint => TicketStruct) public tickets;\r\n\r\n    constructor() public{\r\n        createTicket(\"Coldplay\", \"Concert Arena Nationala\", 10);\r\n    }\r\n\r\n    function createTicket(string memory _name, string memory _description, uint _price) public{\r\n        ticketCount++;\r\n        tickets[ticketCount] = TicketStruct(ticketCount, _name, _description, _price, msg.sender, false);\r\n    }\r\n\r\n\r\n}\r\n\r\n\r\n",
  "sourcePath": "D:/Facultate/ProiectBlockchainTruffle/contracts/Ticket.sol",
  "compiler": {
    "name": "solc",
    "version": "0.5.0+commit.1d4f565a.Emscripten.clang"
  },
  "schemaVersion": "3.0.1",
  "updatedAt": "2024-05-12T22:21:42.576Z",
  "devdoc": {
    "methods": {}
  },
  "userdoc": {
    "methods": {}
  }
}