{
  "contractName": "Withdrawable",
  "abi": [
    {
      "constant": true,
      "inputs": [
        {
          "name": "",
          "type": "uint256"
        },
        {
          "name": "",
          "type": "address"
        }
      ],
      "name": "pendingReturns",
      "outputs": [
        {
          "name": "",
          "type": "uint256"
        }
      ],
      "payable": false,
      "stateMutability": "view",
      "type": "function",
      "signature": "0x8ddac1ef"
    },
    {
      "constant": false,
      "inputs": [
        {
          "name": "auctionId",
          "type": "uint256"
        }
      ],
      "name": "withdraw",
      "outputs": [
        {
          "name": "",
          "type": "bool"
        }
      ],
      "payable": false,
      "stateMutability": "nonpayable",
      "type": "function",
      "signature": "0x2e1a7d4d"
    }
  ],
  "bytecode": "0x608060405234801561001057600080fd5b506101b2806100206000396000f3fe60806040526004361061004b5763ffffffff7c01000000000000000000000000000000000000000000000000000000006000350416632e1a7d4d81146100505780638ddac1ef1461008e575b600080fd5b34801561005c57600080fd5b5061007a6004803603602081101561007357600080fd5b50356100e6565b604080519115158252519081900360200190f35b34801561009a57600080fd5b506100d4600480360360408110156100b157600080fd5b508035906020013573ffffffffffffffffffffffffffffffffffffffff1661016c565b60408051918252519081900360200190f35b600081815260208181526040808320338452909152812054818111156101615760008381526020818152604080832033808552925280832083905551909183156108fc02918491818181858888f193505050501515610161576000838152602081815260408083203384529091528120919091559050610167565b60019150505b919050565b60006020818152928152604080822090935290815220548156fea165627a7a72305820b80c55e0065116b8cddacb6255d04a4e28581e3b9568af3139a19b9ee585f7200029",
  "source": "pragma solidity ^0.5.0;\r\n\r\ncontract Withdrawable {\r\n    mapping(uint => mapping(address  => uint)) public pendingReturns;\r\n\r\n    function withdraw(uint auctionId) public returns (bool) {\r\n        uint amount = pendingReturns[auctionId][msg.sender];\r\n        if (amount > 0) {\r\n            pendingReturns[auctionId][msg.sender] = 0;\r\n\r\n            if (!msg.sender.send(amount)) {\r\n                // If the send fails, revert the withdrawal\r\n                pendingReturns[auctionId][msg.sender] = amount;\r\n                return false;\r\n            }\r\n        }\r\n        return true;\r\n    }\r\n}",
  "sourcePath": "D:\\Facultate\\ProiectBlockchainTruffle\\contracts\\Withdrawable.sol",
  "compiler": {
    "name": "solc",
    "version": "0.5.0+commit.1d4f565a.Emscripten.clang"
  },
  "schemaVersion": "3.0.1",
  "updatedAt": "2024-05-18T18:23:46.983Z",
  "devdoc": {
    "methods": {}
  },
  "userdoc": {
    "methods": {}
  }
}