{
  "contractName": "Withdrawable",
  "abi": [
    {
      "constant": true,
      "inputs": [
        {
          "name": "",
          "type": "address"
        }
      ],
      "name": "pendingReturns",
      "outputs": [
        {
          "name": "",
          "type": "uint256"
        }
      ],
      "payable": false,
      "stateMutability": "view",
      "type": "function"
    },
    {
      "constant": false,
      "inputs": [],
      "name": "withdraw",
      "outputs": [
        {
          "name": "",
          "type": "bool"
        }
      ],
      "payable": false,
      "stateMutability": "nonpayable",
      "type": "function"
    }
  ],
  "bytecode": "0x608060405234801561001057600080fd5b50610174806100206000396000f3fe60806040526004361061004b5763ffffffff7c010000000000000000000000000000000000000000000000000000000060003504166326b387bb81146100505780633ccfd60b146100a2575b600080fd5b34801561005c57600080fd5b506100906004803603602081101561007357600080fd5b503573ffffffffffffffffffffffffffffffffffffffff166100cb565b60408051918252519081900360200190f35b3480156100ae57600080fd5b506100b76100dd565b604080519115158252519081900360200190f35b60006020819052908152604090205481565b336000908152602081905260408120548181111561013f57336000818152602081905260408082208290555183156108fc0291849190818181858888f19350505050151561013f57336000908152602081905260408120919091559050610145565b60019150505b9056fea165627a7a72305820c1237f185bf3e435aced995b079693472f8c3e4ede648e2017bfe9db26ee55ba0029",
  "source": "pragma solidity ^0.5.0;\r\n\r\ncontract Withdrawable {\r\n    mapping(address => uint) public pendingReturns;\r\n\r\n    function withdraw() public returns (bool) {\r\n        uint amount = pendingReturns[msg.sender];\r\n        if (amount > 0) {\r\n            pendingReturns[msg.sender] = 0;\r\n\r\n            if (!msg.sender.send(amount)) {\r\n                pendingReturns[msg.sender] = amount;\r\n                return false;\r\n            }\r\n        }\r\n        return true;\r\n    }\r\n}",
  "sourcePath": "D:\\Facultate\\ProiectBlockchainTruffle\\contracts\\Withdrawable.sol",
  "compiler": {
    "name": "solc",
    "version": "0.5.0+commit.1d4f565a.Emscripten.clang"
  },
  "schemaVersion": "3.0.1",
  "updatedAt": "2024-05-15T20:09:44.885Z",
  "devdoc": {
    "methods": {}
  },
  "userdoc": {
    "methods": {}
  }
}